:030000000217489C
:0F17480053D9BF787FE4F6D8FD7581550217920B
:09110100C10FC110C11101180059
:1018340075840F43E204E4F584C2AFD2A8C2B8C2EF
:101844008890FE0004F090FE1F7488F090FE0474EB
:101854000DF090FE1474FFF0A3F0A3F0A3F0E49055
:10186400FE10F0A3F0A3F0A3F090FE067443F0A3DF
:1018740074A7F0A374DAF0E490FE1EF090FE0CF06E
:0918840090FE007408F0D2AF22BE
:10161C00E4F52C90FE02E0FDE52CC394024003059A
:10162C001822ED20E4ED30E2EAC2AF90FE1074080F
:10163C00F0EF7805C333CE33CED8F9F54E8E4D90FE
:10164C00FE11E54DF0E54E54E04408A3F01207FFFF
:10165C0090FE13F090000112081890FE14F0900008
:10166C000212081890FE15F090000312081890FE54
:10167C0016F090000412081890FE17F09000051256
:10168C00081890FE18F090000612081890FE19F039
:10169C0090000712081890FE1AF090FE017401F0E9
:0516AC00D2AFE4F518C7
:0116B1002216
:1019360090FE13E012084590FE14E0900001120894
:101946005790FE15E090000212085790FE16E090A0
:10195600000312085790FE17E090000412085790F3
:10196600FE18E090000512085790FE19E090000658
:0D19760012085790FE1AE090000702085773
:030003000212F8EE
:1012F800C0E0C0F0C083C082C0D075D000C000C0BC
:0D13080001C002C003C004C005C006C0073C
:1013150090FE03E0F54FE54F20E0030213AA90FE8F
:1013250011E0F550A3E0F551E551AE507805CEC377
:1013350013CE13D8F9FFEE5407F5508F51E55154EC
:10134500F06430701290FE10E020E60B7B017A000D
:101355007958121936D20FE55154F0645070129035
:10136500FE10E020E60B7B017A007960121936D277
:1013750010E55154F06470701290FE10E020E60BF9
:101385007B017A007970121936D2117B017D017FBC
:1013950005121B39E4FBFD7F06121B3990FE017413
:1013A50004F0751800E54F30E30690FE01740CF06B
:1013B500E54F30E21690FE02E030E70690FE00743D
:0D13C50008F0E4FB7D017F06121B39C28990
:1013D200D007D006D005D004D003D002D001D0006F
:0B13E200D0D0D082D083D0F0D0E03219
:05110A00C115011900F0
:1017D70075840F43E210E4F584C2AFD2AAC2BAC23D
:1017E7008A90FD0004F090FD1F7488F090FD04744A
:1017F7000DF090FD1474FFF0A374EFF0A374FFF0E5
:10180700A3F0E490FD10F0A3F0A3F0A3F090FD0681
:101817007443F0A374A7F0A374DAF0E490FD1EF00C
:0D18270090FD0CF090FD007408F0D2AF228F
:1016B200E4F52C90FD02E0FDE52CC3940240030505
:1016C2001922ED20E4ED30E2EAC2AF90FD10740879
:1016D200F0EF7805C333CE33CED8F9F54E8E4D9068
:1016E200FD11E54DF0E54E54E04408A3F01207FF6A
:1016F20090FD13F090000112081890FD14F0900074
:101702000212081890FD15F090000312081890FDBF
:1017120016F090000412081890FD17F090000512C0
:10172200081890FD18F090000612081890FD19F0A4
:1017320090000712081890FD1AF090FD017401F054
:05174200D2AFE4F5192F
:01174700227F
:1019830090FD13E012084590FD14E0900001120849
:101993005790FD15E090000212085790FD16E09055
:1019A300000312085790FD17E090000412085790A7
:1019B300FD18E090000512085790FD19E09000060D
:0D19C30012085790FD1AE090000702085727
:03001300020EB02A
:100EB000C0E0C0F0C083C082C0D075D000C000C008
:0D0EC00001C002C003C004C005C006C00789
:100ECD0090FD03E0F552E55220E003020FB890FDCE
:100EDD0011E0F553A3E0F554E554AE537805CEC3B8
:100EED0013CE13D8F9FFEE5407F5538F54E5546420
:100EFD00444553702290FD10E020E61B7B017A00E3
:100F0D007980121983900081E0B4C203754201907B
:100F1D0000087401F0D215E55464434553704890B0
:100F2D00FD10E020E6417B017A0079801219839053
:100F3D000081E0B4C211A3E024FE600804700843F0
:100F4D0033108003433410900081E0B4C311A3E04B
:100F5D0024FE60080470084333208003433420903E
:100F6D0000077401F0D215E5546442455370229088
:100F7D00FD10E020E61B7B017A0079801219839029
:100F8D000081E0B4C2037540019000067401F0D2F7
:100F9D001590FD017404F07B017D017F07121B3953
:100FAD00E4FBFD7F08121B39751900E55230E3068D
:100FBD0090FD01740CF0E55230E21690FD02E03028
:100FCD00E70690FD007408F0E4FB7D017F08121B1D
:030FDD0039C28B8B
:100FE000D007D006D005D004D003D002D001D00065
:0B0FF000D0D0D082D083D0F0D0E0320F
:100D4200E4FFFE75FF0775FFFF75FFA575840F753C
:100D5200E10475E21475E344F5E475840F75A405A6
:100D6200F5A5F5A675A7FF759CFF759DFF759EFFFE
:100D7200759FFF75ADFF75AEFF75AFFFF58475A367
:100D820027758401F589F588758402F589F58875DA
:100D92008403F589F58875840F758C670FBF000190
:100DA2000EEFF44E70F6E58C30E7FB759701758A0D
:100DB20080E4F584F5D1F58475BA08F5BB75BD03F9
:100DC20075BCF8F5E8F5BEF5BFF5C7F5C675C5FF04
:100DD20075C4FF758402F5BBF5BA75BCF875C6FF1C
:100DE20075C4FFF5E8F584F5D6F584F5D2F5D3F5AB
:100DF200D4758401F5D2F5D3F5D4F584F59AF59D31
:100E0200F5F8F584F5B9F5A97591157598505398CB
:100E1200FCF5877584017598105398FCF584F5C02C
:100E2200F5C3F5CFF584F5D9F5D8F5F9F5FAF5DA84
:100E3200F5FBF5FCF5DBF5FDF5FEF5DCF5E9F5EA8C
:100E4200F5DDF5EBF5ECF5DEF5EDF5EEF5DFF5E1CB
:100E5200F5E2F584F58E758A66758CFC758BD07516
:100E62008DD075892175885075C90875CAB875CB3A
:100E7200FF75CCB875CDFF75C804758401F5C9F549
:100E8200CAF5CBF5CDF5CCF5C875840275C90AF55E
:100E9200CAF5CBF5CDF5CCF5C8F58475EF0675A886
:0D0EA2009275B812F5E675E740F5F6F5F724
:010EAF002220
:10110F00012B00012C00022D0000012F0041004295
:10111F00004100440042004500004200470000012A
:10112F00360001440001280001310001320001475F
:10113F0000013D000141AA41000400C10EC101C1DF
:10114F0006C103013C0002450000014300012500D8
:10115F00012700013500013300013400012900018E
:10116F002A00013B00012600013E00013F00C1049F
:10117F00014000014200013000C105C10DC100C195
:10118F0009C10AC108C107C10BC102C10C44003C0F
:10119F0000000000420055000041003800410039B6
:1011AF000041000A0141000B014100000041000114
:1011BF00004100020041000300410005004100060C
:1011CF00004100070041000800410057004100099D
:1011DF00004100430042003A00004200400000017D
:0511EF002300012400B3
:101EE300EF131313541F240CF582E43400F583E03D
:101EF300FD7C00EF5407FF74017E00A807088005EE
:101F0300C333CE33CED8F9FFEE5CFEEF5D4E24FF34
:011F130022AB
:1019D000301623EF131313541F240CF582E4340044
:1019E000F583E0FEEF5407FF7401A807088002C3E7
:1019F00033D8FC4EF022EF131313541F240CF5823E
:101A0000E43400F583E0FEEF5407FF7401A80708F3
:0A1A10008002C333D8FCF45EF0221C
:101A1A00301623EF131313541F2410F582E43400F5
:101A2A00F583E0FEEF5407FF7401A807088002C39C
:101A3A0033D8FC4EF022EF131313541F2410F582EF
:101A4A00E43400F583E0FEEF5407FF7401A80708A9
:0A1A5A008002C333D8FCF45EF022D2
:101A6400301623EF131313541F2414F582E43400A7
:101A7400F583E0FEEF5407FF7401A807088002C352
:101A840033D8FC4EF022EF131313541F2414F582A1
:101A9400E43400F583E0FEEF5407FF7401A807085F
:0A1AA4008002C333D8FCF45EF02288
:03000B000214A834
:0F14A800C0E0C083C082C0D075D000C006C007AE
:1014B700AF84758400758CDC758A0075FFA5052BD4
:1014C700052C052EE52E7002052D052F900042E014
:1014D70004F0900044E004F0900046E004F0700649
:1014E700900045E004F0900048E004F0700690009A
:1014F70047E004F0E4FE74182EF582E43400F58327
:10150700E0C394C8500D74182EF582E43400F583B7
:10151700E004F00EBE20DFE5286531600CE528B455
:10152700BB07900045E4F0A3F0852831A20C3002F8
:1015370001B3500C300C09900047E4F0A3F0D20B34
:0E154700A20C9202900004E090FB00F08F8452
:0D155500D007D006D0D0D082D083D0E032B5
:10008800E518D3940A4006121834E4F518E519D394
:0B009800940A40061217D7E4F5192265
:101EAB001207FFF508900001120818F509900002BF
:101EBB00120818F50A900003120818F50B9000048D
:101ECB00120818F50C900005120818F50D90000675
:081EDB00120818F50E021F1495
:10188D00900002120818FF54E0C41354071475F0A9
:10189D000AA4FEEF540F2EF54C300E2E90000512BB
:1018AD000818B4AA0EAF4C121EE35007D216AF4C57
:1018BD00121A1A900006120818B4BB0EAF4C121E65
:1018CD00E35007D216AF4C121A647418254CF582EA
:0718DD00E43400F583E4F0A0
:0118E40022E1
:10001600750814750ABF85130BE4F50CF50DF50E7E
:10002600121F14E512B4BF0AE513B4550575415500
:10003600800FE512B4BF07E513B4AA02800075412C
:10004600AA900068E510F0A3E511F0A3E512F0A36D
:10005600E513F0E4A3F0A3F0A3F0FFFE74682EF519
:1000660082E43400F583E02FFF0EEEC3940740ECE4
:1000760090006FEFF07B017A0079687F067E0202BE
:02008600161C46
:100BBF00E51264BE7074E5136466706E121DB8D2D0
:100BCF0001C20E851136750880851109750AAF753A
:100BDF000B55E4F50CF50DF50E121F14900068E59A
:100BEF0010F0A3E511F0A374BEF0A37466F0E4A3B4
:100BFF00F0A3F0A3F0F54BF54A7468254AF582E4AB
:100C0F003400F583E0254BF54B054AE54AC39407BD
:100C1F0040E790006FE54BF07B017A0079687F0623
:100C2F007E0212161C7F01021CFEE51264BE6003D9
:100C3F00020CC3E5136488707BD20E8511367508DC
:100C4F0080851109750AAF750B44F50CF50DF50E7E
:100C5F00121F14900068E510F0A3E511F0A374BE05
:100C6F00F0A37488F0E4A3F0A3F0A3F0F54BF54ADA
:100C7F007468254AF582E43400F583E0254BF54B83
:100C8F00054AE54AC3940740E790006FE54BF07BB8
:100C9F00017A0079687F067E0212161C121E32E559
:100CAF003524FE600804700875250180037527023E
:100CBF00E4F53522E512C394204077E512D3946909
:100CCF005070E51254E0C41354071475F00AA4FFD2
:100CDF00E512540F2FF54C900068E510F0A3E511C5
:100CEF00F0A3E512F0A3E513F0A3E514F0A3E515C7
:100CFF00F0A3E516F0E4F54BF54A7468254AF58242
:100D0F00E43400F583E0254BF54B054AE54AC394DF
:100D1F000740E790006FE54BF090006AE0FF7E0020
:100D2F007B017A00796812161CD216AF4C1219D0BB
:020D3F00D20CD4
:010D4100228F
:1018E500E523C394204003E4F523E52375F00A843A
:1018F50004C43354E0FFE52375F00A84E5F02FFFB7
:1019050074182523F582E43400F583E0C394C840B8
:1019150005754C018003E4F54C7508C08536098FC3
:101925000AE4F50B854C0CF50DF50E121F14052375
:01193500228F
:100FFB00300F54E4F54BF54A7458254AF582E43426
:10100B0000F583E0254BF54B054AE54AC3940740B1
:10101B00E790005FE0B54B13900058E054E0FFBF42
:10102B00A0097B017A007958121EAB90005FE0B5E6
:10103B004B13900058E054E0FFBFE0097B017A00AE
:10104B00795812188DC20F301054E4F54BF54A74D1
:10105B0060254AF582E43400F583E0254BF54B051A
:10106B004AE54AC3940740E7900067E0B54B1390FD
:10107B000060E054E0FFBFA0097B017A00796012A9
:10108B001EAB900067E0B54B13900060E054E0FF9F
:10109B00BFE0097B017A00796012188DC210301104
:1010AB0054E4F54BF54A7470254AF582E43400F5A7
:1010BB0083E0254BF54B054AE54AC3940740E7907F
:1010CB000077E0B54B13900070E054E0FFBFA00930
:1010DB007B017A007970121EAB900077E0B54B1351
:1010EB00900070E054E0FFBFE0097B017A0079705B
:0510FB0012188DC21166
:0111000022CC
:1011FF007DFC7F02121E6F121FD630155B9000060A
:10120F00E064017053900081E064FC6005E064C30A
:10121F00703F900085E0600F7B0E7D017F02121FF3
:10122F00479000017401F0900084E0700F7B0E7DF9
:10123F00017F02121F479000017401F0900086E0B9
:10124F00600F7B0E7D017F02121F4790000174011A
:10125F00F0C215E4900006F07DFC7F03121E6F12A2
:10126F001FD630152D900007E064017025C215F0D0
:10127F00900081E064FC6004E0B4C416900084E048
:10128F0020E20F7B0D7D027F03121F479000027437
:10129F0001F07DFC7F04121E6F121FD6301549908E
:1012AF000008E064017041900081E064FC6005E09B
:1012BF0064C3702D900085E06009121F41900003F8
:1012CF007401F0900084E07009121F4190000374C4
:1012DF0001F0900086E06009121F41900003740135
:0912EF00F0C215E4900008F022A1
:101F6A00E53330E01FE53430E01A90000AE07007EC
:101F7A007D807F08121F8F90000BE070077D807FA5
:051F8A0009121F8F2267
:10094F00E53330E00AE53430E005200502D20590AA
:10095F00000AE06003020A17E525640170533006B0
:10096F0050E53330E019E53430E014E53B20E00F7B
:10097F005333FE433B01E490003AF0A3F0C209E584
:10098F003330E10AE4F52590003804F0802390001D
:10099F003BE004F0700690003AE004F0D390003B87
:1009AF00E0942C90003AE09401400690000A740104
:1009BF00F0900038E064017069E53330E110E53BF9
:1009CF0020E40BD20D5333EF433B10121C80E53361
:1009DF0030E11C30E519E53B20E5145333DF433399
:1009EF00015333FD433B20C205533BFE121B7CE5F5
:1009FF00406401702DF540900038F0C20D43330272
:100A0F00533BEF533BDF801AC20DE4F540900038A3
:100A1F00F0753301433302533BFE533BEF533BDF40
:100A2F00C20890000BE06003020AEFE52764027032
:100A3F0054300651E53330E019E53430E014E52643
:100A4F0020E00F5334FE432601E4900040F0A3F062
:100A5F00C20AE53430E10BE4F5279000397402F057
:100A6F008023900041E004F07006900040E004F015
:100A7F00D3900041E0942C900040E0940140069008
:100A8F00000B7401F0900039E064027071E53430AE
:100A9F00E110E52620E40BD2005334EF4326101269
:100AAF001CBFE53430E11C30E519E52620E5145371
:100ABF0034DF4334015334FD432620C2055326FE51
:100ACF00121BBFE54264017035F542900039F043C7
:100ADF003402900040F0A3F05326EF5326DF801E20
:100AEF00E4900040F0A3F0F542900039F075340126
:100AFF004334025326FE5326EF5326DFC2079000DE
:100B0F000AE06401705B200D58D207200A53B20A25
:100B1F00A3E0704D90003C1208C94A898B419000A8
:100B2F003CE0FCA3E0FDA3E0FEA3E0FF12077E90F4
:100B3F0000511208BD900051E0FCA3E0FDA3E0FEC0
:100B4F00A3E0FF1208AF9000511208BD900051E0D2
:100B5F00F537A3E0F538A3E0F539A3E0F53A7527AB
:100B6F000290000BE064017046200043D208200978
:100B7F003EB20990000AE0703690003C1208C94A54
:100B8F00898B4190003CE0FCA3E0FDA3E0FEA3E0D5
:100B9F00FF12077E9000511208BD900051E0F5370B
:100BAF00A3E0F538A3E0F539A3E0F53A7525012266
:1013ED00E4FF74102FF8E4F674582FF582E43400FE
:1013FD00F583E4F074802FF582E43400F583E4F096
:10140D000FBF08DEE4FF74182FF582E43400F58376
:10141D00E4F00FBF20F0E4FF740C2FF582E43400EC
:10142D00F583E4F074102FF582E43400F583E4F0D5
:10143D0074142FF582E43400F583E4F00FBF04D863
:10144D00E4F543F545F546D293D292D290D291C2AE
:10145D00B0D2B2D2B390000474FFF075840FE5D80A
:10146D00541EC313F53C7F047837E4F608DFFCE423
:10147D00F544753303753403F53BF526F530F52545
:10148D00F52790000AF0A3F0900057F0900043F07C
:0A149D00C20DC200C20BC202C20C55
:0114A7002222
:101DB800E4F528F532F531F547C206C203C20BC275
:101DC80002C20CFF740C2FF582E43400F583E4F0B2
:101DD80074102FF582E43400F583E4F074142FF5C1
:0C1DE80082E43400F583E4F00FBF04D85F
:011DF40022CC
:0F201900120D421220091218341217D70213EDBC
:101FF800E4F5848FBBC2EDD2EC30EDFDAFBEAEBFD1
:0120080022B5
:101FB3007F0F121FF8EFC4F8540FC868FFEEC45424
:101FC300F048FEEF2440FFEE34AEFE7C007D4D1260
:031FD30008792268
:10200900E4F58475D10343E8C075BC2043D10422AB
:101B3900EB7028ED7013EF14FF7401A807088002F9
:101B4900C333D8FCF452248022EF14FF7401A80790
:101B5900088002C333D8FC42248010EF14FF7401BB
:101B6900A807088002C333D8FC6224E524F4900056
:021B790004F076
:011B7B002247
:061F41007D017B0E7F0410
:101F4700E4FEFC7508167509168F0A8D0BF50C8BC8
:101F57000DF50E74082EF8E62CFC0EBE07F58C0F57
:031F6700021F1442
:101F8F00E4FEFC8F08F509750AAF8D0BF50CF50D06
:101F9F00F50EF50E74082EF8E62CFC0EBE07F58C28
:041FAF000F021F14EA
:101E6F009000887401F0A3EDF0A37401F0E4A3F0E7
:101E7F00A3F0A3F0A3F0FEFD74882DF582E43400E7
:101E8F00F583E02EFE0DEDC3940740EC90008FEE2E
:0C1E9F00F07E007B017A0079880216B208
:101C02009000887401F0A374FEF0A37401F0E4A3C1
:101C1200F0A3F0A3F0A3F0FFFE74882EF582E43463
:101C220000F583E02FFF0EEEC3940740EC90008F87
:0F1C3200EFF07B017A0079887F017E000216B205
:101C41009000887401F0A374FDF0A37401F0E4A383
:101C5100F0A3F0A3F0A3F0FFFE74882EF582E43424
:101C610000F583E02FFF0EEEC3940740EC90008F48
:0F1C7100EFF07B017A0079887F017E000216B2C6
:101DF5009000887401F0A374FEF0E4A3F0A3F0A3AF
:101E0500F0A3F0A3F0FFFE74882EF582E43400F50C
:101E150083E02FFF0EEEC3940740EC90008FEFF0A8
:0D1E25007B017A0079887F027E000216B2F0
:101AAE009000887401F0A374FEF0A37401F0A3E516
:101ABE0037F0A3E538F0A3E539F0A3E53AF0E4FFFB
:101ACE00FE74882EF582E43400F583E02FFF0EEECF
:101ADE00C3940740EC90008FEFF07B017A00798879
:071AEE007F037E000216B227
:101AF5009000887401F0A374FEF0A37402F0E4A3CF
:101B0500F0A3F0A37403F0A374E8F0E4FFFE748877
:101B15002EF582E43400F583E02FFF0EEEC3940723
:101B250040EC90008FEFF07B017A0079887F037E8F
:041B3500000216B2E2
:101C80009000887401F0A374FDF0A37401F0E4A344
:101C9000F0A3F0A3F0A3F0FFFE74882EF582E434E5
:101CA00000F583E02FFF0EEEC3940740EC90008F09
:0F1CB000EFF07B017A0079887F037E000216B285
:101CBF009000887401F0A374FDF0A37402F0E4A304
:101CCF00F0A3F0A3F0A3F0FFFE74882EF582E434A6
:101CDF0000F583E02FFF0EEEC3940740EC90008FCA
:0F1CEF00EFF07B017A0079887F037E000216B246
:101B7C009000887401F0A374FEF0900043E0900094
:101B8C008AF0E4A3F0A3F0A3F0A3F0FFFE74882E78
:101B9C00F582E43400F583E02FFF0EEEC39407408A
:101BAC00EC90008FEFF07B017A0079887F027E0049
:031BBC000216B25C
:101BBF009000887401F0A374FEF0900043E0900051
:101BCF008AF0E4A3F0A3F0A3F0A3F0FFFE74882E35
:101BDF00F582E43400F583E02FFF0EEEC394074047
:101BEF00EC90008FEFF07B017A0079887F047E0004
:031BFF000216B219
:101CFE009000887401F0A374B2F0A3EFF0E4A3F0A7
:101D0E00A3F0A3F0A3F0FFFE74882EF582E4340056
:101D1E00F583E02FFF0EEEC3940740EC90008FEF9B
:0E1D2E00F07B017A0079887F037E000216B2F6
:101E32009000887401F0A374B3F0E4A3F0A3F0A3BC
:101E4200F0A3F0A3F0FFFE74882EF582E43400F5CF
:101E520083E02FFF0EEEC3940740EC90008FEFF06B
:0D1E62007B017A0079887F037E000216B2B2
:101D3C009000887401F0A374B0F0A3EFF0E4A3F06A
:101D4C00A3F0A3F0A3F0FFFE74882EF582E4340018
:101D5C00F583E02FFF0EEEC3940740EC90008FEF5D
:0E1D6C00F07B017A0079887F047E000216B2B7
:101D7A009000887401F0A374B0F0A3EFF0E4A3F02C
:101D8A00A3F0A3F0A3F0FFFE74882EF582E43400DA
:101D9A00F583E02FFF0EEEC3940740EC90008FEF1F
:0E1DAA00F07B017A0079887F027E000216B27B
:0A202800EF1FAC0670011E4C70F6AD
:01203200228B
:041FD6007FF47E0115
:041FDA00AB07AA06A1
:101FDE009003E8EB1BAE0270011A4E600C75FFA564
:091FEE00AF82AE8312202880EAC4
:011FF70022C7
:1000A6001220197FD07E07121FDA1211FFE52BC32B
:1000B600940F400CE4F52B7B017D017F01121B3967
:1000C60020120302023FE4F549F54874102548F86A
:1000D600E62549F5490548E548C3940740EDE54955
:1000E6006517600302023DE510541CFFBF040612AB
:1000F600001602023DE51054F0FFBF4018E51264F9
:10010600BE600302023DE5136477600302023D12FE
:100116001F6A02023DE510FFBF110AD206752702CB
:10012600D20702023DE510FFBF220AD2067525015D
:10013600D20802023DE51054F0FFBF2006120BBFA5
:1001460002023DE51054F06430600302023DE514FE
:1001560024FE60080470087535018003753502E5D4
:1001660035B4023AE51524FE601414601914601EB5
:1001760014602324047021E4900043F08020900052
:10018600437401F080189000437402F080109000D0
:10019600437403F0800880009000437404F0E490F8
:1001A6000051F0A3F0A3F0A3F0AF12A3F0A3EFF079
:1001B600E0F8E4F0E8900055F0AF13A3E02FF090DC
:1001C6000055E03400F0E0FCA3E0FDE41207457BB7
:1001D6001D7A5A79E1784212063AE4FBFAF9783F39
:1001E60012054990003C1208BD90003CE0FCA3E0DB
:1001F600FDA3E0FEA3E0FF12077E9000511208BDAA
:10020600E53524FE600504702B8017900051E0FC54
:10021600A3E0FDA3E0FEA3E0FF1208AF9000511299
:1002260008BD900051E0F537A3E0F538A3E0F539B5
:10023600A3E0F53A753002C212C3E52E9414E52DFB
:100246009400400DE4F52DF52EE541B45503121842
:10025600E5E52FC3940A500302031BE4F52F300E85
:1002660069FFF54874102548F582E43400F583E00B
:10027600FE740C2548F582E43400F583E0B50603E8
:100286000F80000548E548B404DABF04057532AAB4
:100296008003E4F532E4FFF54874142548F582E45A
:1002A6003400F583E0FE740C2548F582E43400F54D
:1002B60083E0B506030F80000548E548B404DABFBD
:1002C60004057528BB8003E4F528300B1BC390009A
:1002D60048E094F4900047E09401400CE4F0A3F069
:1002E6007532557528BBC20BE528B4BB04D206C2CD
:1002F6000BE528B4BB1FE547C3940350187508E007
:10030600853609E4F50AF50B85320C85280DF50EC0
:10031600121F140547120FFB2015030204E6E4F52D
:1003260049F54874802548F582E43400F583E025D4
:1003360049F5490548E548C3940740E7900087E03A
:10034600B54909900080E0B41802D203900007E096
:1003560064016003020424F0900081E064FC6005FF
:10036600E064C47063900081E0B4C402C2059000EA
:1003760084E020E00F7B0C7D017F03121F47900075
:10038600027401F0900084E020E20F7B0D7D027F75
:1003960003121F479000027401F0900086E0B4013A
:1003A60012900082E0FD7B107F03121F479000022F
:1003B6007401F0900084E030E00EE030E20A900034
:1003C60086E07004900002F0900081E0B4E010A393
:1003D600E0FD7B017F03121F479000027401F0903D
:1003E6000081E0B4E110A3E0FD7B027F03121F470A
:1003F6009000027401F0900081E064FD702090008E
:1004060083E020E0097B037D017F03121F479000F4
:1004160083E020E1097B037D027F03121F479000E2
:1004260008E0640160030204E4900081E0B4C40FB4
:100436007B097D027F04121F479000037401F09030
:100446000081E0B4C216900083E030E30F7B077DA5
:10045600027F04121F479000037401F0900081E0B0
:1004660064FC6005E064C37063900081E0B4C3027D
:10047600C205900085E0600B7D02121F43900003C9
:100486007401F0900084E0700F7B0E7D027F0412F1
:100496001F479000037401F0900086E0600F7B0E0A
:1004A6007D027F04121F479000037401F0900083C1
:1004B600E020E318900085E07012A3E0700E900033
:1004C60084E0B40107E4900003F0C20D900081E0DF
:1004D600B4E0069000037401F0E4900008F0C21541
:1004E600900003E064016007900002E0B401089008
:1004F600000B7401F08005E490000BF0900000E022
:100506006401600BA3E064016005A3E0B4010890F8
:10051600000A7401F08005E490000AF030060EE54A
:1005260025B40102D208E527B40202D20720080347
:0C05360030070312094F1200880200B3C6
:0A11F40041009000C113C114C112A4
:0300A300021562E1
:10156200C0E0C0F0C083C082C0D075D000C000C04F
:0D15720001C002C003C004C005C006C007D0
:10157F0085845575840130986FC298AF99201302F6
:10158F00D21330136A900090E0FE04F074912EF5A0
:10159F0082E43400F583EFF0900090E06408704F20
:1015AF00FFFE74912EF582E43400F583E02FFF0ED9
:1015BF00EEC3940740EC900098E06F7022FE749198
:1015CF002EF582E43400F583E0FF74102EF8A607A1
:1015DF000EBE08EAD2127B017D017F03121B3990E8
:1015EF000090E4F0C2138007309904C299D2148599
:0215FF00558411
:10160100D007D006D005D004D003D002D001D0003D
:0B161100D0D0D082D083D0F0D0E032E7
:101F1400E4FFF50F74082FF8E6250FF50F0FEFC354
:101F2400940740F0E4FF75840174082FF8E6F599EE
:0C1F34003014FDC2140FEFC3940840EA03
:011F4000227E
:100542000207EAE86480F8E933E83360110460F0F6
:10055200ED33EC337009E8FCE9FDEAFEEBFF22041F
:1005620060DED3EB9FEA9EE99DE8C2E78CF0C2F71A
:1005720095F0400CE8CCF8E9CDF9EACEFAEBCFFBE6
:100582001207B585D0F05804700320D5B3E8047083
:10059200075002B2D50207F492D5EC0460F7E4CC1E
:1005A200C0E0C398F8603B94186008400DD0E0FBAF
:1005B2000207CCE4FBFAC9FC8028E830E406E4C96F
:1005C200FBE4CAFCE830E305E4C9CACBFCE8540703
:1005D2006010F8C3E913F9EA13FAEB13FBEC13FC0E
:1005E200D8F130F52FC3E49CFCEF9BFFEE9AFEEDB1
:1005F20099FDD0E0FBEF4E4D4C701222DB03020757
:10060200F1EC2CFCEF33FFEE33FEED33FDED30E782
:10061200EB0207CCEF2BFFEE3AFEED39FDD0E0FB0B
:1006220050130BBB00030207F4ED13FDEE13FEEFB4
:0806320013FFEC13FC0207CCDE
:10063A00EC4D6011E8497017ED33EC3304600DE4BA
:10064A00FCFFFEFD22E933E8330470F80207EA12E0
:10065A0007B558046009E4CC2481500628500902E1
:10066A0007F42840030207F1C0E0EB4A7044B9805E
:10067A0006D0E0FB0207E0EF4E701CBD8008EBFFDE
:10068A00EAFEE9FD80EBE98DF0A4FEE5F00207231E
:10069A00E9CDF9EAFEEBFFEF89F0A4FCE5F0CE899B
:1006AA00F0A42EFFE435F0CD89F0A42DFEE435F058
:1006BA008067EF4E7005BD80D780C3EF8BF0A4AC86
:1006CA00F0EE8BF0A42CFCE435F0F8EF8AF0A42CC1
:1006DA00E5F038FCE433CB8DF0A42CFCE5F03BF8D4
:1006EA00EE8AF0A42CFCE5F038F8E433CF89F0A4C4
:1006FA002CFCE5F038CF3400CE89F0A42FFFE5F0CA
:10070A003EFEE433C98DF0A42EFEE5F039CD8AF021
:10071A00A42FFFE5F03EFEE43DFD33D0E0FB500799
:10072A000BBB000F0207F4EC2CFCEF33FFEE33FE99
:06073A00ED33FD0207CCC7
:1007400075F020800E75F010800575F0087D007E34
:10075000007F003392D530D5031208AFEC33401040
:10076000EF33FFEE33FEED33FDEC33FCD5F0ED223D
:0E077000E5F0247EA2D513CC92E7CDCEFF2279
:10077E00EDD2E7CD33EC3392D524814006E4FFFE73
:10078E00FDFC22FCE4CFCECDCC24E0501174FF80D2
:10079E00EDC3CC13CCCD13CDCE13CECF13CF04706F
:0707AE00F030D5DE0208AFB8
:1007B500E9D2E7C933E833F892D5EDD2E7CD33EC8A
:0707C50033FC5002B2D52203
:1007CC00EC30E7100FBF000C0EBE00080DBD00048E
:1007DC000BEB6014A2D5EB13FCED92E7FD2274FF3A
:1007EC00FCFDFEFF22E480F8A2D574FF13FC7D8093
:0307FC00E480EFA7
:101757000200A6E493A3F8E493A34003F68001F202
:1017670008DFF48029E493A3F85407240CC8C33393
:10177700C4540F4420C8834004F456800146F6DF62
:10178700E4800B0102040810204080901101E47EE0
:10179700019360BCA3FF543F30E509541FFEE49357
:1017A700A360010ECF54C025E060A840B8E493A31E
:1017B700FAE493A3F8E493A3C8C582C8CAC583CA49
:1017C700F0A3C8C582C8CAC583CADFE9DEE780BE01
:0111FE0000F0
:1007FF00BB010689828A83E0225002E722BBFE02F8
:09080F00E32289828A83E493222A
:10081800BB010CE58229F582E5833AF583E0225095
:1008280006E92582F8E622BBFE06E92582F8E222DF
:0D083800E58229F582E5833AF583E49322F9
:10084500BB010689828A83F0225002F722BBFE0192
:02085500F3228C
:10085700F8BB010DE58229F582E5833AF583E8F0D7
:10086700225006E92582C8F622BBFE05E92582C883
:02087700F2226B
:10087900C2D5EC30E709B2D5E4C39DFDE49CFCEE9A
:1008890030E715B2D5E4C39FFFE49EFE1208FAC310
:10089900E49DFDE49CFC80031208FA30D507C3E40B
:0608A9009FFFE49EFE2209
:0E08AF00C3E49FFFE49EFEE49DFDE49CFC225A
:0C08BD00ECF0A3EDF0A3EEF0A3EFF022AE
:1008C900A8828583F0D083D0821208E01208E01252
:1008D90008E01208E0E473E493A3C583C5F0C58377
:1008E900C8C582C8F0A3C583C5F0C583C8C582C879
:0108F90022DC
:1008FA00BC000BBE0029EF8DF084FFADF022E4CCE2
:10090A00F875F008EF2FFFEE33FEEC33FCEE9DECAA
:10091A00984005FCEE9DFE0FD5F0E9E4CEFD22EDF0
:10092A00F8F5F0EE8420D21CFEADF075F008EF2F3A
:10093A00FFED33FD4007985006D5F0F222C398FD2B
:05094A000FD5F0EA22C8
:00000001FF
