:03000000021719CB
:0F17190053D9BF787FE4F6D8FD75815502176369
:0910D200C10FC110C11101180089
:1018050075840F43E204E4F584C2AFD2A8C2B8C21E
:101815008890FE0004F090FE1F7488F090FE04741A
:101825000DF090FE1474FFF0A3F0A3F0A3F0E49084
:10183500FE10F0A3F0A3F0A3F090FE067443F0A30E
:1018450074A7F0A374DAF0E490FE1EF090FE0CF09D
:0918550090FE007408F0D2AF22ED
:1015ED00E4F52C90FE02E0FDE52CC39402400305CA
:1015FD001822ED20E4ED30E2EAC2AF90FE1074083F
:10160D00F0EF7805C333CE33CED8F9F54E8E4D902D
:10161D00FE11E54DF0E54E54E04408A3F01207E34A
:10162D0090FE13F09000011207FC90FE14F0900054
:10163D00021207FC90FE15F09000031207FC90FEBD
:10164D0016F09000041207FC90FE17F090000512A2
:10165D0007FC90FE18F09000061207FC90FE19F0A2
:10166D009000071207FC90FE1AF090FE017401F035
:05167D00D2AFE4F518F6
:011682002245
:1019070090FE13E012082990FE14E09000011208DF
:101917003B90FE15E090000212083B90FE16E09007
:10192700000312083B90FE17E090000412083B905A
:10193700FE18E090000512083B90FE19E0900006A3
:0D19470012083B90FE1AE090000702083BDA
:030003000212C91D
:1012C900C0E0C0F0C083C082C0D075D000C000C0EB
:0D12D90001C002C003C004C005C006C0076C
:1012E60090FE03E0F54FE54F20E00302137B90FEEE
:1012F60011E0F550A3E0F551E551AE507805CEC3A7
:1013060013CE13D8F9FFEE5407F5508F51E551541B
:10131600F06430701290FE10E020E60B7B017A003C
:101326007958121907D20FE55154F0645070129093
:10133600FE10E020E60B7B017A007960121907D2D5
:1013460010E55154F06470701290FE10E020E60B28
:101356007B017A007970121907D2117B017D017F1A
:1013660005121B0AE4FBFD7F06121B0A90FE0174A0
:1013760004F0751800E54F30E30690FE01740CF09A
:10138600E54F30E21690FE02E030E70690FE00746C
:0D13960008F0E4FB7D017F06121B0AC289EE
:1013A300D007D006D005D004D003D002D001D0009E
:0B13B300D0D0D082D083D0F0D0E03248
:0510DB00C11501190020
:1017A80075840F43E210E4F584C2AFD2AAC2BAC26C
:1017B8008A90FD0004F090FD1F7488F090FD047479
:1017C8000DF090FD1474FFF0A374EFF0A374FFF014
:1017D800A3F0E490FD10F0A3F0A3F0A3F090FD06B1
:1017E8007443F0A374A7F0A374DAF0E490FD1EF03C
:0D17F80090FD0CF090FD007408F0D2AF22BF
:10168300E4F52C90FD02E0FDE52CC3940240030534
:101693001922ED20E4ED30E2EAC2AF90FD107408A8
:1016A300F0EF7805C333CE33CED8F9F54E8E4D9097
:1016B300FD11E54DF0E54E54E04408A3F01207E3B5
:1016C30090FD13F09000011207FC90FD14F09000C0
:1016D300021207FC90FD15F09000031207FC90FD29
:1016E30016F09000041207FC90FD17F0900005120D
:1016F30007FC90FD18F09000061207FC90FD19F00E
:101703009000071207FC90FD1AF090FD017401F0A0
:05171300D2AFE4F5195E
:0117180022AE
:1019540090FD13E012082990FD14E0900001120894
:101964003B90FD15E090000212083B90FD16E090BC
:10197400000312083B90FD17E090000412083B900E
:10198400FD18E090000512083B90FD19E090000658
:0D19940012083B90FD1AE090000702083B8E
:03001300020E8159
:100E8100C0E0C0F0C083C082C0D075D000C000C037
:0D0E910001C002C003C004C005C006C007B8
:100E9E0090FD03E0F552E55220E003020F8990FD2C
:100EAE0011E0F553A3E0F554E554AE537805CEC3E7
:100EBE0013CE13D8F9FFEE5407F5538F54E554644F
:100ECE00444553702290FD10E020E61B7B017A0012
:100EDE007980121954900081E0B4C20375420190DA
:100EEE0000087401F0D215E55464434553704890E0
:100EFE00FD10E020E6417B017A00798012195490B2
:100F0E000081E0B4C211A3E024FE6008047008431F
:100F1E0033108003433410900081E0B4C311A3E07A
:100F2E0024FE60080470084333208003433420906D
:100F3E0000077401F0D215E55464424553702290B7
:100F4E00FD10E020E61B7B017A0079801219549087
:100F5E000081E0B4C2037540019000067401F0D226
:100F6E001590FD017404F07B017D017F07121B0AB1
:100F7E00E4FBFD7F08121B0A751900E55230E306EB
:100F8E0090FD01740CF0E55230E21690FD02E03057
:100F9E00E70690FD007408F0E4FB7D017F08121B4C
:030FAE000AC28BE9
:100FB100D007D006D005D004D003D002D001D00094
:0B0FC100D0D0D082D083D0F0D0E0323E
:100D1300E4FFFE75FF0775FFFF75FFA575840F756B
:100D2300E10475E21475E344F5E475840F75A405D5
:100D3300F5A5F5A675A7FF759CFF759DFF759EFF2D
:100D4300759FFF75ADFF75AEFF75AFFFF58475A396
:100D530027758401F589F588758402F589F5887509
:100D63008403F589F58875840F758C670FBF0001BF
:100D73000EEFF44E70F6E58C30E7FB759701758A3C
:100D830080E4F584F5D1F58475BA08F5BB75BD0328
:100D930075BCF8F5E8F5BEF5BFF5C7F5C675C5FF33
:100DA30075C4FF758402F5BBF5BA75BCF875C6FF4B
:100DB30075C4FFF5E8F584F5D6F584F5D2F5D3F5DA
:100DC300D4758401F5D2F5D3F5D4F584F59AF59D60
:100DD300F5F8F584F5B9F5A97591157598505398FB
:100DE300FCF5877584017598105398FCF584F5C05C
:100DF300F5C3F5CFF584F5D9F5D8F5F9F5FAF5DAB4
:100E0300F5FBF5FCF5DBF5FDF5FEF5DCF5E9F5EABB
:100E1300F5DDF5EBF5ECF5DEF5EDF5EEF5DFF5E1FA
:100E2300F5E2F584F58E758A66758CFC758BD07545
:100E33008DD075892175885075C90875CAB875CB69
:100E4300FF75CCB875CDFF75C804758401F5C9F578
:100E5300CAF5CBF5CDF5CCF5C875840275C90AF58D
:100E6300CAF5CBF5CDF5CCF5C8F58475EF0675A8B5
:0D0E73009275B812F5E675E740F5F6F5F753
:010E8000224F
:1010E000012B00012C00022D0000012F00410042C5
:1010F000004100440042004500004200470000015A
:10110000360001440001280001310001320001478E
:1011100000013D000141AA41000400C10EC101C10E
:1011200006C103013C000245000001430001250007
:1011300001270001350001330001340001290001BD
:101140002A00013B00012600013E00013F00C104CE
:10115000014000014200013000C105C10DC100C1C4
:1011600009C10AC108C107C10BC102C10C44003C3E
:1011700000000000420055000041003800410039E5
:101180000041000A0141000B014100000041000143
:10119000004100020041000300410005004100063B
:1011A00000410007004100080041005700410009CC
:1011B000004100430042003A0000420040000001AC
:0511C0002300012400E2
:101EB400EF131313541F240CF582E43400F583E06C
:101EC400FD7C00EF5407FF74017E00A8070880051D
:101ED400C333CE33CED8F9FFEE5CFEEF5D4E24FF64
:011EE40022DB
:1019A100301623EF131313541F240CF582E4340073
:1019B100F583E0FEEF5407FF7401A807088002C316
:1019C10033D8FC4EF022EF131313541F240CF5826D
:1019D100E43400F583E0FEEF5407FF7401A8070823
:0A19E1008002C333D8FCF45EF0224C
:1019EB00301623EF131313541F2410F582E4340025
:1019FB00F583E0FEEF5407FF7401A807088002C3CC
:101A0B0033D8FC4EF022EF131313541F2410F5821E
:101A1B00E43400F583E0FEEF5407FF7401A80708D8
:0A1A2B008002C333D8FCF45EF02201
:101A3500301623EF131313541F2414F582E43400D6
:101A4500F583E0FEEF5407FF7401A807088002C381
:101A550033D8FC4EF022EF131313541F2414F582D0
:101A6500E43400F583E0FEEF5407FF7401A807088E
:0A1A75008002C333D8FCF45EF022B7
:03000B0002147963
:0F147900C0E0C083C082C0D075D000C006C007DD
:10148800AF84758400758CDC758A0075FFA5052B03
:10149800052C052EE52E7002052D052F900042E043
:1014A80004F0900044E004F0900046E004F0700678
:1014B800900045E004F0900048E004F070069000C9
:1014C80047E004F0E4FE74182EF582E43400F58356
:1014D800E0C394C8500D74182EF582E43400F583E7
:1014E800E004F00EBE20DFE5286531600CE528B485
:1014F800BB07900045E4F0A3F0852831A20C300228
:1015080001B3500C300C09900047E4F0A3F0D20B63
:0E151800A20C9202900004E090FB00F08F8481
:0D152600D007D006D0D0D082D083D0E032E4
:10008800E518D3940A4006121805E4F518E519D3C3
:0B009800940A40061217A8E4F5192294
:101E7C001207E3F5089000011207FCF50990000227
:101E8C001207FCF50A9000031207FCF50B900004F6
:101E9C001207FCF50C9000051207FCF50D900006DE
:081EAC001207FCF50E021EE511
:10185E009000021207FCFF54E0C41354071475F0F5
:10186E000AA4FEEF540F2EF54C300E2E90000512EA
:10187E0007FCB4AA0EAF4C121EB45007D216AF4CD2
:10188E001219EB9000061207FCB4BB0EAF4C121EE1
:10189E00B45007D216AF4C121A357418254CF58277
:0718AE00E43400F583E4F0CF
:0118B5002210
:10001600750814750ABF85130BE4F50CF50DF50E7E
:10002600121EE5E512B4BF0AE513B4550575415530
:10003600800FE512B4BF07E513B4AA02800075412C
:10004600AA900068E510F0A3E511F0A3E512F0A36D
:10005600E513F0E4A3F0A3F0A3F0FFFE74682EF519
:1000660082E43400F583E02FFF0EEEC3940740ECE4
:1000760090006FEFF07B017A0079687F067E0202BE
:0200860015ED76
:100B9000E51264BE7074E5136466706E121D89D22E
:100BA00001C20E851136750880851109750AAF7569
:100BB0000B55E4F50CF50DF50E121EE5900068E5F9
:100BC00010F0A3E511F0A374BEF0A37466F0E4A3E3
:100BD000F0A3F0A3F0F54BF54A7468254AF582E4DA
:100BE0003400F583E0254BF54B054AE54AC39407ED
:100BF00040E790006FE54BF07B017A0079687F0653
:100C00007E021215ED7F01021CCFE51264BE600367
:100C1000020C94E5136488707BD20E85113675083A
:100C200080851109750AAF750B44F50CF50DF50EAD
:100C3000121EE5900068E510F0A3E511F0A374BE64
:100C4000F0A37488F0E4A3F0A3F0A3F0F54BF54A09
:100C50007468254AF582E43400F583E0254BF54BB2
:100C6000054AE54AC3940740E790006FE54BF07BE7
:100C7000017A0079687F067E021215ED121E03E5E7
:100C80003524FE600804700875250180037527026D
:100C9000E4F53522E512C394204077E512D3946938
:100CA0005070E51254E0C41354071475F00AA4FF01
:100CB000E512540F2FF54C900068E510F0A3E511F4
:100CC000F0A3E512F0A3E513F0A3E514F0A3E515F6
:100CD000F0A3E516F0E4F54BF54A7468254AF58271
:100CE000E43400F583E0254BF54B054AE54AC3940F
:100CF0000740E790006FE54BF090006AE0FF7E0050
:100D00007B017A0079681215EDD216AF4C1219A149
:020D1000D20C03
:010D120022BE
:1018B600E523C394204003E4F523E52375F00A8469
:1018C60004C43354E0FFE52375F00A84E5F02FFFE6
:1018D60074182523F582E43400F583E0C394C840E8
:1018E60005754C018003E4F54C7508C08536098FF3
:1018F6000AE4F50B854C0CF50DF50E121EE50523D5
:0119060022BE
:100FCC00300F54E4F54BF54A7458254AF582E43455
:100FDC0000F583E0254BF54B054AE54AC3940740E1
:100FEC00E790005FE0B54B13900058E054E0FFBF72
:100FFC00A0097B017A007958121E7C90005FE0B545
:10100C004B13900058E054E0FFBFE0097B017A00DD
:10101C00795812185EC20F301054E4F54BF54A742F
:10102C0060254AF582E43400F583E0254BF54B0549
:10103C004AE54AC3940740E7900067E0B54B13902C
:10104C000060E054E0FFBFA0097B017A00796012D8
:10105C001E7C900067E0B54B13900060E054E0FFFD
:10106C00BFE0097B017A00796012185EC210301162
:10107C0054E4F54BF54A7470254AF582E43400F5D6
:10108C0083E0254BF54B054AE54AC3940740E790AE
:10109C000077E0B54B13900070E054E0FFBFA0095F
:1010AC007B017A007970121E7C900077E0B54B13AF
:1010BC00900070E054E0FFBFE0097B017A0079708A
:0510CC0012185EC211C4
:0110D10022FC
:1011D0007DFC7F02121E40121FA730155B90000697
:1011E000E064017053900081E064FC6005E064C33A
:1011F000703F900085E0600F7B0E7D017F02121F23
:10120000189000017401F0900084E0700F7B0E7D57
:10121000017F02121F189000017401F0900086E017
:10122000600F7B0E7D017F02121F18900001740178
:10123000F0C215E4900006F07DFC7F03121E401200
:101240001FA730152D900007E064017025C215F02E
:10125000900081E064FC6004E0B4C416900084E077
:1012600020E20F7B0D7D027F03121F189000027495
:1012700001F07DFC7F04121E40121FA7301549901B
:101280000008E064017041900081E064FC6005E0CA
:1012900064C3702D900085E06009121F1290000356
:1012A0007401F0900084E07009121F129000037422
:1012B00001F0900086E06009121F12900003740193
:0912C000F0C215E4900008F022D0
:101F3B00E53330E01FE53430E01A90000AE070071B
:101F4B007D807F08121F6090000BE070077D807F03
:051F5B0009121F6022C5
:10093300E53330E00AE53430E005200502D20590C6
:10094300000AE06003020A06E525640170563006DA
:1009530053E53330E01CE53430E017E53B20E0128B
:100963005333FE433B01121A7FE490003AF0A3F0A5
:10097300C209E53330E10AE4F52590003804F0803C
:100983002390003BE004F0700690003AE004F0D3BB
:1009930090003BE0942C90003AE0940140069000D4
:1009A3000A7401F0900038E064017071E53330E1BE
:1009B3001830E415E53B20E410D20D5333EF433BED
:1009C300107F01121D4B121C51E53330E11C30E541
:1009D30019E53B20E5145333DF4333015333FD4320
:1009E3003B20C205533BFE121B4DE5406401702DB5
:1009F300F540900038F0C20D433302533BEF533BB5
:100A0300DF801AC20DE4F540900038F075330143DE
:100A13003302533BFE533BEF533BDFC208E52764EE
:100A2300027057300654E53330E01CE53430E017EC
:100A3300E52620E0125334FE432601121AC6E49041
:100A43000040F0A3F0C20AE53430E10BE4F527904F
:100A530000397402F08023900041E004F0700690A6
:100A63000040E004F0D3900041E0942C900040E07B
:100A73009401400690000B7401F0900039E0640289
:100A83007059E53430E11830E415E52620E410D23E
:100A9300005334EF4326107F01121D0D121C90E505
:100AA3003430E11C30E519E52620E5145334DF43E7
:100AB30034015334FD432620C2055326FE121B90F6
:100AC300E542B40116E4F542900039F04334029054
:100AD3000040F0A3F05326EF5326DF90000AE064B2
:100AE30001705B200D58D207200A53B20AA3E070AD
:100AF3004D90003C1208AD4A898B4190003CE0FCCC
:100B0300A3E0FDA3E0FEA3E0FF12076290005112F1
:100B130008A1900051E0FCA3E0FDA3E0FEA3E0FFE9
:100B23001208939000511208A1900051E0F537A3E9
:100B3300E0F538A3E0F539A3E0F53A752702900014
:100B43000BE064017046200043D20820093EB2093D
:100B530090000AE0703690003C1208AD4A898B4140
:100B630090003CE0FCA3E0FDA3E0FEA3E0FF12073E
:100B7300629000511208A1900051E0F537A3E0F50F
:0D0B830038A3E0F539A3E0F53A752501220D
:1013BE00E4FF74102FF8E4F674582FF582E434002D
:1013CE00F583E4F074802FF582E43400F583E4F0C5
:1013DE000FBF08DEE4FF74182FF582E43400F583A6
:1013EE00E4F00FBF20F0E4FF740C2FF582E434001C
:1013FE00F583E4F074102FF582E43400F583E4F005
:10140E0074142FF582E43400F583E4F00FBF04D892
:10141E00E4F543F545F546D293D292D290D291C2DD
:10142E00B0D2B2D2B390000474FFF075840FE5D839
:10143E00541EC313F53C7F047837E4F608DFFCE452
:10144E00F544753303753403F53BF526F530F52574
:10145E00F52790000AF0A3F0900057F0900043F0AB
:0A146E00C20DC200C20BC202C20C84
:011478002251
:101D8900E4F528F532F531F547C206C203C20BC2A4
:101D990002C20CFF740C2FF582E43400F583E4F0E1
:101DA90074102FF582E43400F583E4F074142FF5F0
:0C1DB90082E43400F583E4F00FBF04D88E
:011DC50022FB
:0F1FEA00120D13121FDA1218051217A80213BED8
:101FC900E4F5848FBBC2EDD2EC30EDFDAFBEAEBF00
:011FD90022E5
:101F84007F0F121FC9EFC4F8540FC868FFEEC45482
:101F9400F048FEEF2440FFEE34AEFE7C007D4D128F
:031FA400085D22B3
:101FDA00E4F58475D10343E8C075BC2043D10422DB
:101B0A00EB7028ED7013EF14FF7401A80708800228
:101B1A00C333D8FCF452248022EF14FF7401A807BF
:101B2A00088002C333D8FC42248010EF14FF7401EA
:101B3A00A807088002C333D8FC6224E524F4900085
:021B4A0004F0A5
:011B4C002276
:061F12007D017B0E7F043F
:101F1800E4FEFC7508167509168F0A8D0BF50C8BF7
:101F28000DF50E74082EF8E62CFC0EBE07F58C0F86
:031F3800021EE5A1
:101F6000E4FEFC8F08F509750AAF8D0BF50CF50D35
:101F7000F50EF50E74082EF8E62CFC0EBE07F58C57
:041F80000F021EE549
:101E40009000887401F0A3EDF0A37401F0E4A3F016
:101E5000A3F0A3F0A3F0FEFD74882DF582E4340016
:101E6000F583E02EFE0DEDC3940740EC90008FEE5D
:0C1E7000F07E007B017A00798802168366
:101BD3009000887401F0A374FEF0A37401F0E4A3F1
:101BE300F0A3F0A3F0A3F0FFFE74882EF582E43493
:101BF30000F583E02FFF0EEEC3940740EC90008FB7
:0F1C0300EFF07B017A0079887F017E0002168363
:101C12009000887401F0A374FDF0A37401F0E4A3B2
:101C2200F0A3F0A3F0A3F0FFFE74882EF582E43453
:101C320000F583E02FFF0EEEC3940740EC90008F77
:0F1C4200EFF07B017A0079887F017E0002168324
:101DC6009000887401F0A374FEF0E4A3F0A3F0A3DE
:101DD600F0A3F0A3F0FFFE74882EF582E43400F53C
:101DE60083E02FFF0EEEC3940740EC90008FEFF0D8
:0D1DF6007B017A0079887F027E000216834F
:101A7F009000887401F0A374FEF0A37401F0A3E545
:101A8F0037F0A3E538F0A3E539F0A3E53AF0E4FF2A
:101A9F00FE74882EF582E43400F583E02FFF0EEEFE
:101AAF00C3940740EC90008FEFF07B017A007988A8
:071ABF007F037E0002168385
:101AC6009000887401F0A374FEF0A37402F0E4A3FE
:101AD600F0A3F0A37403F0A374E8F0E4FFFE7488A7
:101AE6002EF582E43400F583E02FFF0EEEC3940753
:101AF60040EC90008FEFF07B017A0079887F037EBF
:041B06000002168340
:101C51009000887401F0A374FDF0A37401F0E4A373
:101C6100F0A3F0A3F0A3F0FFFE74882EF582E43414
:101C710000F583E02FFF0EEEC3940740EC90008F38
:0F1C8100EFF07B017A0079887F037E00021683E3
:101C90009000887401F0A374FDF0A37402F0E4A333
:101CA000F0A3F0A3F0A3F0FFFE74882EF582E434D5
:101CB00000F583E02FFF0EEEC3940740EC90008FF9
:0F1CC000EFF07B017A0079887F037E00021683A4
:101B4D009000887401F0A374FEF0900043E09000C3
:101B5D008AF0E4A3F0A3F0A3F0A3F0FFFE74882EA7
:101B6D00F582E43400F583E02FFF0EEEC3940740B9
:101B7D00EC90008FEFF07B017A0079887F027E0078
:031B8D00021683BA
:101B90009000887401F0A374FEF0900043E0900080
:101BA0008AF0E4A3F0A3F0A3F0A3F0FFFE74882E64
:101BB000F582E43400F583E02FFF0EEEC394074076
:101BC000EC90008FEFF07B017A0079887F047E0033
:031BD00002168377
:101CCF009000887401F0A374B2F0A3EFF0E4A3F0D6
:101CDF00A3F0A3F0A3F0FFFE74882EF582E4340086
:101CEF00F583E02FFF0EEEC3940740EC90008FEFCB
:0E1CFF00F07B017A0079887F037E0002168355
:101E03009000887401F0A374B3F0E4A3F0A3F0A3EB
:101E1300F0A3F0A3F0FFFE74882EF582E43400F5FE
:101E230083E02FFF0EEEC3940740EC90008FEFF09A
:0D1E33007B017A0079887F037E0002168310
:101D0D009000887401F0A374B0F0A3EFF0E4A3F099
:101D1D00A3F0A3F0A3F0FFFE74882EF582E4340047
:101D2D00F583E02FFF0EEEC3940740EC90008FEF8C
:0E1D3D00F07B017A0079887F047E0002168315
:101D4B009000887401F0A374B0F0A3EFF0E4A3F05B
:101D5B00A3F0A3F0A3F0FFFE74882EF582E4340009
:101D6B00F583E02FFF0EEEC3940740EC90008FEF4E
:0E1D7B00F07B017A0079887F027E00021683D9
:0A1FF900EF1FAC0670011E4C70F6DD
:0120030022BA
:041FA7007FF47E0144
:041FAB00AB07AA06D0
:101FAF009003E8EB1BAE0270011A4E600C75FFA593
:091FBF00AF82AE83121FF980EA23
:011FC80022F6
:1000A600121FEA7FD07E07121FAB1211D0E52BC3B9
:1000B600940F400CE4F52B7B017D017F01121B0A96
:1000C600201203020223E4F549F54874102548F886
:1000D600E62549F5490548E548C3940740EDE54955
:1000E60065176003020221E510541CFFBF040512C8
:1000F60000168015E51054F0FFBF400DE512B4BEA2
:1001060008E513B47703121F3BE510FFBF110AD2AF
:1001160006752702D207020221E51054F0FFBF2020
:1001260006120B90020221E51054F06430600302BF
:100136000221E51424FE6008047008753501800369
:10014600753502E535B4023AE51524FE60141460EF
:100156001914601E14602324047021E4900043F0F7
:1001660080209000437401F080189000437402F0E0
:1001760080109000437403F0800880009000437460
:1001860004F0E4900051F0A3F0A3F0A3F0AF12A3A3
:10019600F0A3EFF0E0F8E4F0E8900055F0AF13A319
:1001A600E02FF0900055E03400F0E0FCA3E0FDE421
:1001B6001207297B1D7A5A79E1784212061EE4FB62
:1001C600FAF9783F12052D90003C1208A190003CE8
:1001D600E0FCA3E0FDA3E0FEA3E0FF1207629000AF
:1001E600511208A1E53524FE600504702B80179096
:1001F6000051E0FCA3E0FDA3E0FEA3E0FF1208939C
:100206009000511208A1900051E0F537A3E0F538AF
:10021600A3E0F539A3E0F53A753002C212C3E52E24
:100226009414E52D9400400DE4F52DF52EE541B42A
:1002360055031218B6E52FC3940A50030202FFE4D1
:10024600F52F300E69FFF54874102548F582E43421
:1002560000F583E0FE740C2548F582E43400F5834E
:10026600E0B506030F80000548E548B404DABF048C
:10027600057532AA8003E4F532E4FFF548741425C7
:1002860048F582E43400F583E0FE740C2548F582D7
:10029600E43400F583E0B506030F80000548E54821
:1002A600B404DABF04057528BB8003E4F528300BD7
:1002B6001BC3900048E094F4900047E09401400C82
:1002C600E4F0A3F07532557528BBC20BE528B4BB24
:1002D60004D206C20BE528B4BB1FE547C3940350FE
:1002E600187508E0853609E4F50AF50B85320C85A4
:1002F600280DF50E121EE50547120FCC2015030238
:1003060004CAE4F549F54874802548F582E43400CA
:10031600F583E02549F5490548E548C3940740E7D4
:10032600900087E0B54909900080E0B41802D20336
:10033600900007E064016003020408F0900081E089
:1003460064FC6005E064C47063900081E0B4C4029C
:10035600C205900084E020E00F7B0C7D017F031234
:100366001F189000027401F0900084E020E20F7BD9
:100376000D7D027F03121F189000027401F0900099
:1003860086E0B40112900082E0FD7B107F03121F0D
:10039600189000027401F0900084E030E00EE03026
:1003A600E20A900086E07004900002F0900081E07E
:1003B600B4E010A3E0FD7B017F03121F189000023A
:1003C6007401F0900081E0B4E110A3E0FD7B027FB0
:1003D60003121F189000027401F0900081E064FD82
:1003E6007020900083E020E0097B037D017F0312EB
:1003F6001F18900083E020E1097B037D027F031232
:100406001F18900008E0640160030204C890008190
:10041600E0B4C40F7B097D027F04121F189000030D
:100426007401F0900081E0B4C216900083E030E3DE
:100436000F7B077D027F04121F189000037401F0E2
:10044600900081E064FC6005E064C3706390008105
:10045600E0B4C302C205900085E0600B7D02121F66
:10046600149000037401F0900084E0700F7B0E7D01
:10047600027F04121F189000037401F0900086E0BA
:10048600600F7B0E7D027F04121F1890000374011B
:10049600F0900083E020E318900085E07012A3E05E
:1004A600700E900084E0B40107E4900003F0C20DE2
:1004B600900081E0B4E0069000037401F0E490003F
:1004C60008F0C215900003E064016007900002E0A6
:1004D600B4010890000B7401F08005E490000BF065
:1004E600900000E06401600BA3E064016005A3E0F6
:1004F600B4010890000A7401F08005E490000AF047
:1005060030060EE525B40102D208E527B40202D270
:10051600072008033007031209331200880200B3CC
:0A11C50041009000C113C114C112D3
:0300A30002153310
:10153300C0E0C0F0C083C082C0D075D000C000C07E
:0D15430001C002C003C004C005C006C007FF
:1015500085845575840130986FC298AF9920130225
:10156000D21330136A900090E0FE04F074912EF5CF
:1015700082E43400F583EFF0900090E06408704F4F
:10158000FFFE74912EF582E43400F583E02FFF0E08
:10159000EEC3940740EC900098E06F7022FE7491C7
:1015A0002EF582E43400F583E0FF74102EF8A607D0
:1015B0000EBE08EAD2127B017D017F03121B0A9046
:1015C0000090E4F0C2138007309904C299D21485C8
:0215D000558440
:1015D200D007D006D005D004D003D002D001D0006D
:0B15E200D0D0D082D083D0F0D0E03217
:101EE500E4FFF50F74082FF8E6250FF50F0FEFC384
:101EF500940740F0E4FF75840174082FF8E6F5991E
:0C1F05003014FDC2140FEFC3940840EA32
:011F110022AD
:100526000207CEE86480F8E933E83360110460F02E
:10053600ED33EC337009E8FCE9FDEAFEEBFF22043B
:1005460060DED3EB9FEA9EE99DE8C2E78CF0C2F736
:1005560095F0400CE8CCF8E9CDF9EACEFAEBCFFB02
:1005660012079985D0F05804700320D5B3E80470BB
:10057600075002B2D50207D892D5EC0460F7E4CC56
:10058600C0E0C398F8603B94186008400DD0E0FBCB
:100596000207B0E4FBFAC9FC8028E830E406E4C9A7
:1005A600FBE4CAFCE830E305E4C9CACBFCE854071F
:1005B6006010F8C3E913F9EA13FAEB13FBEC13FC2A
:1005C600D8F130F52FC3E49CFCEF9BFFEE9AFEEDCD
:1005D60099FDD0E0FBEF4E4D4C701222DB03020773
:1005E600D5EC2CFCEF33FFEE33FEED33FDED30E7BB
:1005F600EB0207B0EF2BFFEE3AFEED39FDD0E0FB44
:1006060050130BBB00030207D8ED13FDEE13FEEFEC
:0806160013FFEC13FC0207B016
:10061E00EC4D6011E8497017ED33EC3304600DE4D6
:10062E00FCFFFEFD22E933E8330470F80207CE1218
:10063E00079958046009E4CC248150062850090219
:10064E0007D82840030207D5C0E0EB4A7044B980B2
:10065E0006D0E0FB0207C4EF4E701CBD8008EBFF16
:10066E00EAFEE9FD80EBE98DF0A4FEE5F002070756
:10067E00E9CDF9EAFEEBFFEF89F0A4FCE5F0CE89B7
:10068E00F0A42EFFE435F0CD89F0A42DFEE435F074
:10069E008067EF4E7005BD80D780C3EF8BF0A4ACA2
:1006AE00F0EE8BF0A42CFCE435F0F8EF8AF0A42CDD
:1006BE00E5F038FCE433CB8DF0A42CFCE5F03BF8F0
:1006CE00EE8AF0A42CFCE5F038F8E433CF89F0A4E0
:1006DE002CFCE5F038CF3400CE89F0A42FFFE5F0E6
:1006EE003EFEE433C98DF0A42EFEE5F039CD8AF03E
:1006FE00A42FFFE5F03EFEE43DFD33D0E0FB5007B6
:10070E000BBB000F0207D8EC2CFCEF33FFEE33FED1
:06071E00ED33FD0207B0FF
:1007240075F020800E75F010800575F0087D007E50
:10073400007F003392D530D503120893EC33401078
:10074400EF33FFEE33FEED33FDEC33FCD5F0ED2259
:0E075400E5F0247EA2D513CC92E7CDCEFF2295
:10076200EDD2E7CD33EC3392D524814006E4FFFE8F
:10077200FDFC22FCE4CFCECDCC24E0501174FF80EE
:10078200EDC3CC13CCCD13CDCE13CECF13CF04708B
:07079200F030D5DE020893F0
:10079900E9D2E7C933E833F892D5EDD2E7CD33ECA6
:0707A90033FC5002B2D5221F
:1007B000EC30E7100FBF000C0EBE00080DBD0004AA
:1007C0000BEB6014A2D5EB13FCED92E7FD2274FF56
:1007D000FCFDFEFF22E480F8A2D574FF13FC7D80AF
:0307E000E480EFC3
:101728000200A6E493A3F8E493A34003F68001F231
:1017380008DFF48029E493A3F85407240CC8C333C2
:10174800C4540F4420C8834004F456800146F6DF91
:10175800E4800B01020408102040809010D2E47E3F
:10176800019360BCA3FF543F30E509541FFEE49386
:10177800A360010ECF54C025E060A840B8E493A34D
:10178800FAE493A3F8E493A3C8C582C8CAC583CA78
:10179800F0A3C8C582C8CAC583CADFE9DEE780BE30
:0111CF00001F
:1007E300BB010689828A83E0225002E722BBFE0214
:0907F300E32289828A83E4932247
:1007FC00BB010CE58229F582E5833AF583E02250B2
:10080C0006E92582F8E622BBFE06E92582F8E222FB
:0D081C00E58229F582E5833AF583E4932215
:10082900BB010689828A83F0225002F722BBFE01AE
:02083900F322A8
:10083B00F8BB010DE58229F582E5833AF583E8F0F3
:10084B00225006E92582C8F622BBFE05E92582C89F
:02085B00F22287
:10085D00C2D5EC30E709B2D5E4C39DFDE49CFCEEB6
:10086D0030E715B2D5E4C39FFFE49EFE1208DEC348
:10087D00E49DFDE49CFC80031208DE30D507C3E443
:06088D009FFFE49EFE2225
:0E089300C3E49FFFE49EFEE49DFDE49CFC2276
:0C08A100ECF0A3EDF0A3EEF0A3EFF022CA
:1008AD00A8828583F0D083D0821208C41208C412A6
:1008BD0008C41208C4E473E493A3C583C5F0C583CB
:1008CD00C8C582C8F0A3C583C5F0C583C8C582C895
:0108DD0022F8
:1008DE00BC000BBE0029EF8DF084FFADF022E4CCFE
:1008EE00F875F008EF2FFFEE33FEEC33FCEE9DECC7
:1008FE00984005FCEE9DFE0FD5F0E9E4CEFD22ED0D
:10090E00F8F5F0EE8420D21CFEADF075F008EF2F56
:10091E00FFED33FD4007985006D5F0F222C398FD47
:05092E000FD5F0EA22E4
:00000001FF
