:030000000233A622
:0F33A60053D9BF787FE4F6D8FD75813D0233F02F
:0C2D2D0041013200410130004101310041
:103AE30085842175840F43E480C2AF123C5C90014E
:103AF30027E02440FDE433FC7F0212396490012760
:103B0300E0FD7C007F01123A6D43E72043F720126A
:073B13003A2ED2AF85218498
:013B1A002288
:103C5C00AF8475840175DA0975D8FF7E0175DA08B1
:083C6C008ED80EBE21F78F84F3
:013C7400222D
:023A6D00AB07A5
:103A6F00AA8475840175DA2175D90075D8BB75DA0A
:103A7F0024E4F5D9F5D8EDAE047802C333CE33CEB6
:103A8F00D8F9FF53061F4306808ED98FD875D914E6
:0A3A9F0075D88875DA208BD88A8468
:013AA90022FA
:02396400AB07AF
:10396600AA8475840175DA0975D90075D8B375DA34
:103976000CE4F5D9F5D8EDAE047802C333CE33CED8
:10398600D8F9FF53061F4306A08ED98FD875D910D4
:1039960075D88875DA08AF03EF3395E0F5D98FD877
:0239A6008A8411
:0139A80022FC
:103A2E00AF8475840143F84175DA039000FCE0FE23
:103A3E00B4030875D92675D840801EEEB4020875F9
:103A4E00D92675D8418012EEB4010875D92675D8DD
:0E3A5E0043800675D92675D84775F80A8F84FF
:013A6C002237
:083552008F218B228A238924BA
:10355A0085842575FFA5C2AF75840175DA0975D909
:10356A000075D88775DA0FE4FFEFC394085023EF8C
:10357A00F582758300A3AB22AA23A924122772F528
:10358A00D98F82758300122772F5D875FFA50F0FA0
:10359A0080D775DA088521D875DA407F647E0012F3
:1035AA003B8DE52114FF74017E00A807088005C33E
:1035BA0033CE33CED8F9FFE5D95EFEE5D85F4E604B
:1035CA000C900131E004F0852584D2AF22D2AF8578
:0235DA00258446
:0135DC0022CC
:0638D5008B368A378938AA
:1038DB00AE8475840175DA2175D80FC2AF75DA2005
:1038EB008FD875DA27E4FFEFC394085020EFF582E9
:1038FB00758300A3AB36AA37A938E5D912279F8F5A
:10390B0082758300E5D812279F0F0F80DAD2AF8E16
:01391B008427
:01391C002288
:03009B00021A0640
:101A0600C0E0C0F0C083C082C0D075D000C000C0A6
:0D1A160001C002C003C004C005C006C00727
:101A230075340075350085843375840185C032753E
:101A3300FFA5E53220E40302211AE5C054EF440771
:101A4300F5C075DA50AFD8AED9EF20E00302211507
:101A530075FFA57B017A0179287F011238D59001A2
:101A630029E01228B81FDF111FDF221AC0A01BAD07
:101A7300A11C9DA41D14A51D8BA61E02A71E79A83B
:101A83001EF4A91F3EAA1F88AB1FC2AC2054B01F6F
:101A9300DFC020AAC21FDFD01FDFD21FDFD31FDFAB
:101AA300D41FDFD51FDFD61FDFD71FDFD81FDFD936
:101AB30020E5FB20B7FC1FFFFE0000211590012845
:101AC300E0900132F0900129E090003AF090012A71
:101AD300E0900130F090012BE0FFE4FCFDFE90006C
:101AE3000612286F900006E0FCA3E0FDA3E0FEA32E
:101AF300E0FF780812285C90000612286F90000619
:101B0300E0F8A3E0F9A3E0FAA3E0FB90012CE0FFE7
:101B1300E4FCFDFEEB2FFFEE3AFEED39FDEC38FC65
:101B230090000612286F900006E0FCA3E0FDA3E0FE
:101B3300FEA3E0FF780812285C90000612286F903D
:101B43000006E0F8A3E0F9A3E0FAA3E0FB90012D7F
:101B5300E0FFE4FCFDFEEB2FFFEE3AFEED39FDEC7A
:101B630038FC90000612286F900006E0FCA3E0FD0D
:101B7300A3E0FEA3E0FF780812285C900006122879
:101B83006F900006E0F8A3E0F9A3E0FAA3E0FB906E
:101B9300012EE0FFE4FCFDFEEB2FFFEE3AFEED39F4
:101BA300FDEC38FC900006021C97900128E09001A0
:101BB30032F0900129E090003AF090012AE0900180
:101BC30030F090012BE0FFE4FCFDFE9000F31228BF
:101BD3006F9000F3E0FCA3E0FDA3E0FEA3E0FF7839
:101BE3000812285C9000F312286F9000F3E0F8A32A
:101BF300E0F9A3E0FAA3E0FB90012CE0FFE4FCFD95
:101C0300FEEB2FFFEE3AFEED39FDEC38FC9000F3CE
:101C130012286F9000F3E0FCA3E0FDA3E0FEA3E035
:101C2300FF780812285C9000F312286F9000F3E00D
:101C3300F8A3E0F9A3E0FAA3E0FB90012DE0FFE4B1
:101C4300FCFDFEEB2FFFEE3AFEED39FDEC38FC9088
:101C530000F312286F9000F3E0FCA3E0FDA3E0FE85
:101C6300A3E0FF780812285C9000F312286F90001D
:101C7300F3E0F8A3E0F9A3E0FAA3E0FB90012EE080
:101C8300FFE4FCFDFEEB2FFFEE3AFEED39FDEC38F1
:101C9300FC9000F312286F021FB8900128E0900116
:101CA30032F0900129E090003AF090012AE090018F
:101CB30030F090012BE0FF900130E0C454F0243B5E
:101CC300F582E43400F583EFF090012CE0FF9001FE
:101CD30030E0C454F0243CF582E43400F583EFF0A3
:101CE30090012DE0FF900130E0C454F0243DF582D3
:101CF300E43400F583EFF090012EE0FF900130E033
:101D0300C454F0243EF582E43400F583EFF0021F5F
:101D1300B8900128E0900132F0900129E090003A58
:101D2300F090012AE0900130F090012BE0FF900148
:101D330030E0C454F0243FF582E43400F583EFF03F
:101D430090012CE0FF900130E0C454F02440F58270
:101D5300E43400F583EFF090012DE0FF900130E0D3
:101D6300C454F02441F582E43400F583EFF090018C
:101D73002EE0FF900130E0C454F02442F582E434B5
:101D830000F583EFF0021FB8900128E0900132F0D4
:101D9300900129E090003AF090012AE0900130F0A0
:101DA30090012BE0FF900130E0C454F02443F5820E
:101DB300E43400F583EFF090012CE0FF900130E074
:101DC300C454F02444F582E43400F583EFF0900129
:101DD3002DE0FF900130E0C454F02445F582E43453
:101DE30000F583EFF090012EE0FF900130E0C45442
:101DF300F02446F582E43400F583EFF0021FB89037
:101E03000128E0900132F0900129E090003AF0902F
:101E1300012AE0900130F090012BE0FF900130E0C7
:101E2300C454F02447F582E43400F583EFF09001C5
:101E33002CE0FF900130E0C454F02448F582E434F0
:101E430000F583EFF090012DE0FF900130E0C454E2
:101E5300F02449F582E43400F583EFF090012EE09D
:101E6300FF900130E0C454F0244AF582E43400F5D5
:101E730083EFF0021FB8900128E0900132F0900147
:101E830029E090003AF090012AE0900130F09001AF
:101E93002BE0FF900130E075F009A4248BF582E478
:101EA3003400F583EFF090012CE0FF900130E075F2
:101EB300F009A4248CF582E43400F583EFF090015B
:101EC3002DE0FF900130E075F009A4248DF582E444
:101ED3003400F583EFF090012EE0FF900130E075C0
:101EE300F009A4248EF582E43400F583EFF0021F99
:101EF300B8900128E0900132F0900129E090003A77
:101F0300F090012AE0900130F090012DE0FF900164
:101F130030E075F009A4248FF582E43400F583EFF3
:101F2300F090012EE0FF900130E075F009A42490B9
:101F3300F582E43400F583EFF0807A900128E09095
:101F43000132F0900129E090003AF090012AE090EC
:101F53000130F090012DE0FF900130E075F009A40D
:101F63002491F582E43400F583EFF090012EE0FF35
:101F7300900130E075F009A42492F582E43400F571
:101F830083EFF08030900128E0900132F090012936
:101F9300E090003AF090012AE0900130F090012E99
:101FA300E0FF900130E075F009A42493F582E43456
:101FB30000F583EFF0900102E4F0D20602211590C0
:101FC3000128E0900132F0900129E090003AF0906E
:101FD300012AE0900130F01239A98018900128E01D
:101FE300900132F0900129E090003AF090012AE04C
:101FF300900130F0900102E4F0022115753500756F
:10200300340074282534F582E43401F583E0253562
:10201300F5350534E534B407E990012FE065356003
:10202300030221159000CBE06003022115900128E3
:10203300E0900132F0900129E090003AF090012AFB
:10204300E0900130F09000CB7401F09000FB02218E
:102053000875350075340074282534F582E434019D
:10206300F583E02535F5350534E534B407E990010A
:102073002FE0653560030221159000CBE060030279
:102083002115900128E0900132F0900129E09000A1
:102093003AF090012AE0900130F09000CB7409F0FF
:1020A3009000FB7401805E9001027401F0900111B5
:1020B300E4F0805E75350075340074282534F582AC
:1020C300E43401F583E02535F5350534E534B4070B
:1020D300E990012FE065357039900129E09000FB0C
:1020E30080299000CBE0702A900128E0900132F023
:1020F300900129E090003AF090012AE0900130F03D
:102103009000CB7401F09000157433F090010274C9
:1021130001F075FFA5D2B4E53230E308E5C054F70A
:102123004407F5C0E532540760116407600D43C0EE
:0E21330007E53230E70353F8FEC2B48533846B
:10214100D007D006D005D004D003D002D001D000F2
:0B215100D0D0D082D083D0F0D0E0329C
:10009E00EC90ECF1ED4FEDAAEE01EE54EEA5EEF381
:1000AE00EF3EEF87EFCDF011F053F093F0D1F10C5E
:1000BE00F146F17FF1B5F1EAF21EF250F281F2B0A3
:1000CE00F2DEF30BF336F361F38AF3B3F3DAF401F2
:1000DE00F426F44BF46EF491F4B3F4D4F4F5F51570
:1000EE00F534F552F570F58DF5A9F5C5F5E1F5FB8D
:1000FE00F615F62FF648F661F679F691F6A8F6BFE4
:10010E00F6D5F6EBF701F716F72AF73FF753F76632
:10011E00F77AF78DF79FF7B2F7C4F7D5F7E7F7F849
:10012E00F809F819F82AF83AF84AF859F869F878F7
:10013E00F886F895F8A3F8B2F8C0F8CDF8DBF8E831
:10014E00F8F5F902F90FF91CF928F934F941F94CCF
:10015E00F958F964F96FF97AF986F991F99BF9A6CC
:10016E00F9B1F9BBF9C5F9D0F9DAF9E4F9EDF9F716
:10017E00FA01FA0AFA13FA1CFA26FA2EFA37FA409C
:10018E00FA49FA51FA5AFA62FA6AFA73FA7BFA8360
:10019E00FA8BFA92FA9AFAA2FAA9FAB1FAB8FABF57
:1001AE00FAC7FACEFAD5FADCFAE3FAEAFAF1FAF776
:1001BE00FAFEFB04FB0BFB11FB18FB1EFB24FB2BB7
:1001CE00FB31FB37FB3DFB43FB49FB4EFB54FB5A1C
:1001DE00FB60FB65FB6BFB70FB76FB7BFB81FB86A1
:1001EE00FB8BFB90FB95FB9BFBA0FBA5FBAAFBAF40
:1001FE00FBB3FBB8FBBDFBC2FBC7FBCBFBD0FBD5F8
:10020E00FBD9FBDEFBE2FBE7FBEBFBEFFBF4FBF8C2
:10021E00FBFCFC01FC05FC09FC0DFC11FC15FC199A
:10022E00FC1DFC21FC25FC29FC2DFC31FC35FC3889
:10023E00FC3CFC40FC43FC47FC4BFC4EFC52FC5689
:10024E00FC59FC5DFC60FC63FC67FC6AFC6EFC7197
:10025E00FC74FC78FC7BFC7EFC81FC85FC88FC8BB2
:10026E00FC8EFC91FC94FC97FC9AFC9DFCA1FCA3DB
:10027E00FCA6FCA9FCACFCAFFCB2FCB5FCB8FCBB0C
:10028E00FCBDFCC0FCC3FCC6FCC9FCCBFCCEFCD147
:10029E00FCD3FCD6FCD9FCDBFCDEFCE0FCE3FCE68C
:1002AE00FCE8FCEBFCEDFCF0FCF2FCF4FCF7FCF9DA
:1002BE00FCFCFCFEFD01FD03FD05FD08FD0AFD0C29
:1002CE00FD0EFD11FD13FD15FD17FD1AFD1CFD1E86
:1002DE00FD20FD22FD25FD27FD29FD2BFD2DFD2FEA
:1002EE00FD31FD33FD35FD38FD3AFD3CFD3EFD4053
:1002FE00FD42FD44FD46FD47FD49FD4BFD4DFD4FC5
:10030E00FD51FD53FD55FD57FD59FD5AFD5CFD5E3A
:10031E00FD60FD62FD64FD65FD67FD69FD6BFD6CB5
:10032E00FD6EFD70FD72FD73FD75FD77FD79FD7A35
:10033E00FD7CFD7EFD7FFD81FD82FD84FD86FD87BA
:10034E00FD89FD8BFD8CFD8EFD8FFD91FD92FD9443
:10035E00FD96FD97FD99FD9AFD9CFD9DFD9FFDA0CF
:10036E00FDA2FDA3FDA5FDA6FDA7FDA9FDAAFDAC61
:10037E00FDADFDAFFDB0FDB1FDB3FDB4FDB6FDB7F6
:10038E00FDB8FDBAFDBBFDBCFDBEFDBFFDC1FDC28E
:10039E00FDC3FDC4FDC6FDC7FDC8FDCAFDCBFDCC2A
:1003AE00FDCEFDCFFDD0FDD1FDD3FDD4FDD5FDD6C7
:1003BE00FDD8FDD9FDDAFDDBFDDCFDDEFDDFFDE068
:1003CE00FDE1FDE2FDE4FDE5FDE6FDE7FDE8FDE90D
:1003DE00FDEBFDECFDEDFDEEFDEFFDF0FDF1FDF2B3
:1003EE00FDF4FDF5FDF6FDF7FDF8FDF9FDFAFDFB5B
:1003FE00FDFCFDFDFDFEFDFFFE01FE02FE03FE0403
:10040E00FE05FE06FE07FE08FE09FE0AFE0BFE0CAA
:10041E00FE0DFE0EFE0FFE10FE11FE12FE13FE145A
:10042E00FE15FE16FE17FE18FE19FE1AFE1BFE1B0B
:10043E00FE1CFE1DFE1EFE1FFE20FE21FE22FE23C2
:10044E00FE24FE25FE26FE27FE27FE28FE29FE2A76
:10045E00FE2BFE2CFE2DFE2EFE2FFE2FFE30FE312D
:10046E00FE32FE33FE34FE35FE35FE36FE37FE38E6
:10047E00FE39FE3AFE3AFE3BFE3CFE3DFE3EFE3FA0
:10048E00FE3FFE40FE41FE42FE43FE43FE44FE455D
:10049E00FE46FE47FE47FE48FE49FE4AFE4AFE4B1A
:1004AE00FE4CFE4DFE4DFE4EFE4FFE50FE51FE51D9
:1004BE00FE52FE53FE53FE54FE55FE56FE56FE579A
:1004CE00FE58FE59FE59FE5AFE5BFE5BFE5CFE5D5B
:1004DE00FE5EFE5EFE5FFE60FE60FE61FE62FE621E
:1004EE00FE63FE64FE65FE65FE66FE67FE67FE68E1
:1004FE00FE69FE69FE6AFE6BFE6BFE6CFE6DFE6DA6
:10050E00FE6EFE6FFE6FFE70FE70FE71FE72FE726C
:10051E00FE73FE74FE74FE75FE76FE76FE77FE7733
:10052E00FE78FE79FE79FE7AFE7AFE7BFE7CFE7CFC
:10053E00FE7DFE7EFE7EFE7FFE7FFE80FE81FE81C4
:10054E00FE82FE82FE83FE83FE84FE85FE85FE868F
:10055E00FE86FE87FE87FE88FE89FE89FE8AFE8A5B
:10056E00FE8BFE8BFE8CFE8DFE8DFE8EFE8EFE8F26
:10057E00FE8FFE90FE90FE91FE91FE92FE93FE93F4
:10058E00FE94FE94FE95FE95FE96FE96FE97FE97C1
:10059E00FE98FE98FE99FE99FE9AFE9AFE9BFE9B91
:1005AE00FE9CFE9DFE9DFE9EFE9EFE9FFE9FFEA05D
:1005BE00FEA0FEA1FEA1FEA2FEA2FEA3FEA3FEA42D
:1005CE00FEA4FEA4FEA5FEA5FEA6FEA6FEA7FEA701
:1005DE00FEA8FEA8FEA9FEA9FEAAFEAAFEABFEABD1
:1005EE00FEACFEACFEADFEADFEADFEAEFEAEFEAFA3
:1005FE00FEAFFEB0FEB0FEB1FEB1FEB2FEB2FEB276
:10060E00FEB3FEB3FEB4FEB4FEB5FEB5FEB6FEB648
:10061E00FEB6FEB7FEB7FEB8FEB8FEB9FEB9FEBA1C
:10062E00FEBAFEBAFEBBFEBBFEBCFEBCFEBDFEBDF0
:10063E00FEBDFEBEFEBEFEBFFEBFFEBFFEC0FEC0C6
:10064E00FEC1FEC1FEC1FEC2FEC2FEC3FEC3FEC49B
:10065E00FEC4FEC4FEC5FEC5FEC6FEC6FEC6FEC771
:10066E00FEC7FEC8FEC8FEC8FEC9FEC9FEC9FECA48
:10067E00FECAFECBFECBFECBFECCFECCFECDFECD1F
:10068E00FECDFECEFECEFECEFECFFECFFED0FED0F7
:10069E00FED0FED1FED1FED1FED2FED2FED3FED3CF
:1006AE00FED3FED4FED4FED4FED5FED5FED5FED6A8
:1006BE00FED6FED6FED7FED7FED8FED8FED8FED981
:1006CE00FED9FED9FEDAFEDAFEDAFEDBFEDBFEDB5B
:1006DE00FEDCFEDCFEDCFEDDFEDDFEDDFEDEFEDE35
:1006EE00FEDEFEDFFEDFFEDFFEE0FEE0FEE1FEE10F
:1006FE00FEE1FEE1FEE2FEE2FEE2FEE3FEE3FEE3EB
:10070E00FEE4FEE4FEE4FEE5FEE5FEE5FEE6FEE6C4
:10071E00FEE6FEE7FEE7FEE7FEE8FEE8FEE8FEE99F
:10072E00FEE9FEE9FEEAFEEAFEEAFEEAFEEBFEEB7B
:10073E00FEEBFEECFEECFEECFEEDFEEDFEEDFEEE57
:10074E00FEEEFEEEFEEEFEEFFEEFFEEFFEF0FEF034
:10075E00FEF0FEF1FEF1FEF1FEF1FEF2FEF2FEF211
:10076E00FEF3FEF3FEF3FEF3FEF4FEF4FEF4FEF5EE
:10077E00FEF5FEF5FEF6FEF6FEF6FEF6FEF7FEF7CB
:10078E00FEF7FEF8FEF8FEF8FEF8FEF9FEF9FEF9A9
:10079E00FEF9FEFAFEFAFEFAFEFBFEFBFEFBFEFB88
:1007AE00FEFCFEFCFEFCFEFCFEFDFEFDFEFDFEFE66
:1007BE00FEFEFEFEFEFEFEFFFEFFFEFFFEFFFF0044
:1007CE00FF00FF00FF01FF01FF01FF01FF02FF021B
:1007DE00FF02FF02FF03FF03FF03FF03FF04FF04FB
:1007EE00FF04FF04FF05FF05FF05FF05FF06FF06DB
:1007FE00FF06FF06FF07FF07FF07FF07FF08FF08BB
:10080E00FF08FF08FF09FF09FF09FF09FF0AFF0A9A
:10081E00FF0AFF0AFF0BFF0BFF0BFF0BFF0CFF0C7A
:10082E00FF0CFF0CFF0DFF0DFF0DFF0DFF0EFF0E5A
:10083E00FF0EFF0EFF0EFF0FFF0FFF0FFF0FFF103C
:10084E00FF10FF10FF10FF11FF11FF11FF11FF111D
:10085E00FF12FF12FF12FF12FF13FF13FF13FF13FE
:10086E00FF14FF14FF14FF14FF14FF15FF15FF15DF
:10087E00FF15FF16FF16FF16FF16FF16FF17FF17C1
:10088E00FF17FF17FF18FF18FF18FF18FF18FF19A3
:10089E00FF19FF19FF19FF19FF1AFF1AFF1AFF1A86
:1008AE00FF1BFF1BFF1BFF1BFF1BFF1CFF1CFF1C67
:1008BE00FF1CFF1CFF1DFF1DFF1DFF1DFF1DFF1E4B
:1008CE00FF1EFF1EFF1EFF1EFF1FFF1FFF1FFF1F2E
:1008DE00FF20FF20FF20FF20FF20FF21FF21FF210F
:1008EE00FF21FF21FF22FF22FF22FF22FF22FF23F3
:1008FE00FF23FF23FF23FF23FF24FF24FF24FF24D6
:10090E00FF24FF24FF25FF25FF25FF25FF25FF26BA
:10091E00FF26FF26FF26FF26FF27FF27FF27FF279D
:10092E00FF27FF28FF28FF28FF28FF28FF29FF2980
:10093E00FF29FF29FF29FF29FF2AFF2AFF2AFF2A65
:10094E00FF2AFF2BFF2BFF2BFF2BFF2BFF2BFF2C49
:10095E00FF2CFF2CFF2CFF2CFF2DFF2DFF2DFF2D2D
:10096E00FF2DFF2DFF2EFF2EFF2EFF2EFF2EFF2F12
:10097E00FF2FFF2FFF2FFF2FFF2FFF30FF30FF30F6
:10098E00FF30FF30FF30FF31FF31FF31FF31FF31DC
:10099E00FF31FF32FF32FF32FF32FF32FF33FF33C0
:1009AE00FF33FF33FF33FF33FF34FF34FF34FF34A5
:1009BE00FF34FF34FF35FF35FF35FF35FF35FF358B
:1009CE00FF36FF36FF36FF36FF36FF36FF37FF376F
:1009DE00FF37FF37FF37FF37FF38FF38FF38FF3855
:1009EE00FF38FF38FF38FF39FF39FF39FF39FF393C
:1009FE00FF39FF3AFF3AFF3AFF3AFF3AFF3AFF3B21
:100A0E00FF3BFF3BFF3BFF3BFF3BFF3BFF3CFF3C06
:100A1E00FF3CFF3CFF3CFF3CFF3DFF3DFF3DFF3DEC
:100A2E00FF3DFF3DFF3DFF3EFF3EFF3EFF3EFF3ED3
:100A3E00FF3EFF3FFF3FFF3FFF3FFF3FFF3FFF3FB9
:100A4E00FF40FF40FF40FF40FF40FF40FF41FF419E
:100A5E00FF41FF41FF41FF41FF41FF42FF42FF4285
:100A6E00FF42FF42FF42FF42FF43FF43FF43FF436C
:100A7E00FF43FF43FF43FF44FF44FF44FF44FF4453
:100A8E00FF44FF44FF45FF45FF45FF45FF45FF453A
:100A9E00FF45FF46FF46FF46FF46FF46FF46FF4621
:100AAE00FF47FF47FF47FF47FF47FF47FF47FF4708
:100ABE00FF48FF48FF48FF48FF48FF48FF48FF49EF
:100ACE00FF49FF49FF49FF49FF49FF49FF4AFF4AD6
:100ADE00FF4AFF4AFF4AFF4AFF4AFF4AFF4BFF4BBE
:100AEE00FF4BFF4BFF4BFF4BFF4BFF4CFF4CFF4CA5
:100AFE00FF4CFF4CFF4CFF4CFF4CFF4DFF4DFF4D8D
:100B0E00FF4DFF4DFF4DFF4DFF4DFF4EFF4EFF4E74
:100B1E00FF4EFF4EFF4EFF4EFF4FFF4FFF4FFF4F5B
:100B2E00FF4FFF4FFF4FFF4FFF50FF50FF50FF5043
:100B3E00FF50FF50FF50FF50FF51FF51FF51FF512B
:100B4E00FF51FF51FF51FF51FF52FF52FF52FF5213
:100B5E00FF52FF52FF52FF52FF52FF53FF53FF53FC
:100B6E00FF53FF53FF53FF53FF53FF54FF54FF54E4
:100B7E00FF54FF54FF54FF54FF54FF55FF55FF55CC
:100B8E00FF55FF55FF55FF55FF55FF55FF56FF56B5
:100B9E00FF56FF56FF56FF56FF56FF56FF57FF579D
:100BAE00FF57FF57FF57FF57FF57FF57FF57FF5886
:100BBE00FF58FF58FF58FF58FF58FF58FF58FF586F
:100BCE00FF59FF59FF59FF59FF59FF59FF59FF5957
:100BDE00FF59FF5AFF5AFF5AFF5AFF5AFF5AFF5A40
:100BEE00FF5AFF5BFF5BFF5BFF5BFF5BFF5BFF5B28
:100BFE00FF5BFF5BFF5BFF5CFF5CFF5CFF5CFF5C12
:100C0E00FF5CFF5CFF5CFF5CFF5DFF5DFF5DFF5DFA
:100C1E00FF5DFF5DFF5DFF5DFF5DFF5EFF5EFF5EE3
:100C2E00FF5EFF5EFF5EFF5EFF5EFF5EFF5FFF5FCC
:100C3E00FF5FFF5FFF5FFF5FFF5FFF5FFF5FFF5FB6
:100C4E00FF60FF60FF60FF60FF60FF60FF60FF609E
:100C5E00FF60FF60FF61FF61FF61FF61FF61FF6188
:100C6E00FF61FF61FF61FF62FF62FF62FF62FF6271
:100C7E00FF62FF62FF62FF62FF62FF63FF63FF635B
:100C8E00FF63FF63FF63FF63FF63FF63FF63FF6445
:100C9E00FF64FF64FF64FF64FF64FF64FF64FF642E
:100CAE00FF64FF64FF65FF65FF65FF65FF65FF6518
:100CBE00FF65FF65FF65FF65FF66FF66FF66FF6602
:100CCE00FF66FF66FF66FF66FF66FF66FF67FF67EC
:100CDE00FF67FF67FF67FF67FF67FF67FF67FF67D6
:100CEE00FF67FF68FF68FF68FF68FF68FF68FF68BF
:100CFE00FF68FF68FF68FF68FF69FF69FF69FF69AA
:100D0E00FF69FF69FF69FF69FF69FF69FF6AFF6A93
:100D1E00FF6AFF6AFF6AFF6AFF6AFF6AFF6AFF6A7D
:100D2E00FF6AFF6BFF6BFF6BFF6BFF6BFF6BFF6B66
:100D3E00FF6BFF6BFF6BFF6BFF6BFF6CFF6CFF6C52
:100D4E00FF6CFF6CFF6CFF6CFF6CFF6CFF6CFF6C3D
:100D5E00FF6DFF6DFF6DFF6DFF6DFF6DFF6DFF6D25
:100D6E00FF6DFF6DFF6DFF6EFF6EFF6EFF6EFF6E10
:100D7E00FF6EFF6EFF6EFF6EFF6EFF6EFF6EFF6FFC
:100D8E00FF6FFF6FFF6FFF6FFF6FFF6FFF6FFF6FE5
:100D9E00FF6FFF6FFF6FFF70FF70FF70FF70FF70D0
:100DAE00FF70FF70FF70FF70FF70FF70FF71FF71BB
:100DBE00FF71FF71FF71FF71FF71FF71FF71FF71A5
:100DCE00FF71FF71FF71FF72FF72FF72FF72FF7290
:100DDE00FF72FF72FF72FF72FF72FF72FF72FF737C
:100DEE00FF73FF73FF73FF73FF73FF73FF73FF7365
:100DFE00FF73FF73FF73FF74FF74FF74FF74FF7450
:100E0E00FF74FF74FF74FF74FF74FF74FF74FF743C
:100E1E00FF75FF75FF75FF75FF75FF75FF75FF7524
:100E2E00FF75FF75FF75FF75FF75FF76FF76FF7611
:100E3E00FF76FF76FF76FF76FF76FF76FF76FF76FC
:100E4E00FF76FF76FF77FF77FF77FF77FF77FF77E6
:100E5E00FF77FF77FF77FF77FF77FF77FF77FF78D3
:100E6E00FF78FF78FF78FF78FF78FF78FF78FF78BC
:100E7E00FF78FF78FF78FF78FF79FF79FF79FF79A8
:100E8E00FF79FF79FF79FF79FF79FF79FF79FF7994
:100E9E00FF79FF79FF7AFF7AFF7AFF7AFF7AFF7A7E
:100EAE00FF7AFF7AFF7AFF7AFF7AFF7AFF7AFF7B6B
:100EBE00FF7BFF7BFF7BFF7BFF7BFF7BFF7BFF7B54
:100ECE00FF7BFF7BFF7BFF7BFF7BFF7CFF7CFF7C41
:100EDE00FF7CFF7CFF7CFF7CFF7CFF7CFF7CFF7C2C
:100EEE00FF7CFF7CFF7CFF7CFF7DFF7DFF7DFF7D18
:100EFE00FF7DFF7DFF7DFF7DFF7DFF7DFF7DFF7D04
:100F0E00FF7DFF7DFF7EFF7EFF7EFF7EFF7EFF7EED
:100F1E00FF7EFF7EFF7EFF7EFF7EFF7EFF7EFF7EDB
:100F2E00FF7EFF7FFF7FFF7FFF7FFF7FFF7FFF7FC4
:100F3E00FF7FFF7FFF7FFF7FFF7FFF7FFF7FFF80B2
:100F4E00FF80FF80FF80FF80FF80FF80FF80FF809B
:100F5E00FF80FF80FF80FF80FF80FF80FF81FF8189
:100F6E00FF81FF81FF81FF81FF81FF81FF81FF8173
:100F7E00FF81FF81FF81FF81FF81FF81FF82FF8261
:100F8E00FF82FF82FF82FF82FF82FF82FF82FF824B
:100F9E00FF82FF82FF82FF82FF82FF83FF83FF8338
:100FAE00FF83FF83FF83FF83FF83FF83FF83FF8323
:100FBE00FF83FF83FF83FF83FF83FF84FF84FF8410
:100FCE00FF84FF84FF84FF84FF84FF84FF84FF84FB
:100FDE00FF84FF84FF84FF84FF84FF85FF85FF85E8
:100FEE00FF85FF85FF85FF85FF85FF85FF85FF85D3
:100FFE00FF85FF85FF85FF85FF85FF85FF86FF86C1
:10100E00FF86FF86FF86FF86FF86FF86FF86FF86AA
:10101E00FF86FF86FF86FF86FF86FF86FF87FF8798
:10102E00FF87FF87FF87FF87FF87FF87FF87FF8782
:102D3900C104C187C180C185C103C101C106C102E6
:102D49004101020041001700410014004100150033
:102D59004100160042001C000041001F00420020F3
:102D690000004200D300004100260041010C00414F
:102D790000D20041003A0041000A0041011100411E
:102D8900001E004100FB004100FD004100FC004124
:102D99000127004100D1004400F700000000410173
:102DA900070042010300004200AB00004100AA00F5
:102DB900440108000000004400180000000041011F
:102DC9002600410013004400CD0000000042010527
:102DD900000042002700004400FE000000004400FB
:102DE9000B00000000410031004400060000000013
:102DF9004400F30000000044000F000000004400FC
:102E090036000000004400320000000041000100CB
:042E19004100000074
:083C8B0075FFA575840FD2DB63
:033C9300D2DD225D
:03001C00C2DD2220
:063B8700D2037F2C7E0139
:043B8D008E2C8F2DBE
:103B9100752E03752FE8E52D152DAE2C7002152C11
:0F3BA1004E600C75FFA5AF2FAE2E123C9680E73D
:013BB00022F2
:0700030053FF7F43FF0722BA
:103B5200123BD8120003123AAA123BB175840FE548
:103B6200F85403900001F0E5F8547F900127F0E04B
:103B7200FFC4540FF0E49000FCF0122FE1D2B975AB
:053B8200FFA5D2AF22F7
:103BB100AF84E4F584758921F587758DFD758BFDDD
:103BC100C28FD28E758CDCF58AC28DD28CD2A9754A
:063BD1009850D2AC8F8475
:013BD70022CB
:03000B00022F04BD
:0D2F0400C0E0C083C082C0D075D000C00501
:102F1100AD8475FFA5900014E004F0A3E004F0A3D4
:102F2100E004F0A3E004F090001DE004F0700690CE
:102F3100001CE004F090001FE004F0900021E00488
:102F4100F07006900020E004F09000D4E004F070EE
:102F5100069000D3E004F075840FD39000D4E09480
:102F6100589000D3E09402404120D93390011AE0F7
:102F710030E2289000D3E4F0A3F0900026E004F0C2
:102F8100E0D394034024D2D990011174C4F090008D
:102F91001F7433F090001EE4F0800FD2D9800090AE
:102FA10000D3E4F0A3F0900026F090011AE0308302
:102FB100054408F0800354F7F090011AE0308205CF
:102FC1004404F0800354FBF08D84758400758CDC1F
:052FD100758A008D84EB
:0B2FD600D005D0D0D082D083D0E032F4
:103AAA00AF8475840F75840F75E10475E23475E38C
:103ABA004075840F75A4F1E4F5A5F5A6F5A7759CE4
:103ACA00FF759DFFF59EF59F75ADFF75AEFF75AF4E
:083ADA00FFF58475A3278F841A
:013AE20022C1
:103BD800AF8475840F758C67E4FDFC0DBD00010C86
:103BE800E4B505F7ECB401F3E58C30E7FB75970114
:023BF8008F84B8
:013BFA0022A8
:102FE100E4FF74292FF582E43400F583E4F00FBF88
:102FF10008F07F1E9000D5E4F0A3DFFCE4FF740D20
:103001002FF582E43401F583E4F074A62FF582E410
:103011003400F583E4F074022FF582E43400F58383
:10302100E4F074222FF582E43400F583E4F00FBF5D
:1030310004CC12391DE49000FBF09001027402F0FF
:10304100E49000D1F09000F712287B00000000C24C
:10305100C9C2CB90000612287B0007A1209000F383
:1030610012287B0000C35090000F12287B00000043
:103071006490003612287B000000647F6B90003B57
:10308100E4F0A3DFFC7F14900112E4F0A3DFFC1253
:0B3091003B1BE49000CBF0A3F0D20743
:01309C002211
:10391D00900127E024FE603B1460381460352403C9
:10392D007034123AE3900126740AF0900013F0906F
:10393D0000AA7432F090010812287B0003CBFE9090
:10394D000105E4F0A3740FF09000277401F0A37447
:07395D0090F022123AE32270
:1036EE003001769000FDE584F0E4F584C2CAE0F581
:1036FE0084D2019000D1E0FF6401600AEF640260A1
:10370E0005EF640370539000F712287B0000000051
:10371E009000CD12287B0000000090001812287B2C
:10372E0000000000E4900016F090011AE054FDF045
:10373E00E49000D1F0900032A3A3E0FEA3E4FFE4F6
:10374E00FDFC780812284990011FEFF0900032A37B
:0A375E00A3A3E0FF900120EFF0228A
:102C30009000CDE0F8A3E0F9A3E0FAA3E0FB900058
:102C4000F7E0FCA3E0FDA3E0FEA3E09BFFEE9AFE0D
:0F2C5000ED99FDEC98FCE47B02FAF9F81227D31A
:102C5F008F3D8E3C8D3B8C3A900105E0FEA3E0FF4B
:102C6F00EF253DFFEE353CFEE4353BFDE4353AFC08
:102C7F00900018E0F8A3E0F9A3E0FAA3E0FBC31279
:102C8F002822402F900018E0FCA3E0FDA3E0FEA354
:102C9F00E0FFC006C007900105E0FEA3E0FBAA0617
:102CAF00D007D006EF9BFFEE9AFEED9400FDEC945B
:102CBF00008059900105E0FEA3E0FBC3E53D9BFFBB
:102CCF00E53C9EFEE53B9400FDE53A9400FC900048
:102CDF0018E0F8A3E0F9A3E0FAA3E0FBD31228224F
:102CEF00502D900126E0FF900016E0C39F402EE488
:102CFF00F0900018E0F8900105E0FEA3E0FFE4FC7F
:102D0F00FDEB2FFFEA3EFEED39FDEC38FC8008AFFE
:0E2D1F003DAE3CAD3BAC3A90001812286F223E
:03002300022B2F7E
:0F2B2F00C0E0C083C082C0D075D000C006C00710
:102B3E00900133E4F0A3F0A3F0AF84F58420980362
:102B4E00022C2375FFA5C298900135E024D5F5829D
:102B5E00E43400F583E599F0900135E004F090013E
:102B6E0033E4F0A3F0209823900134E004F07006D3
:102B7E00900133E004F075FFA5D3900134E094206A
:102B8E00900133E0944E40DD022C1DC29890013529
:102B9E00E024D5F582E43400F583E599F090013513
:102BAE00E004F09000D5E0FEB40106A3E0641060EE
:102BBE005CEE640170579000D6E06403704F900194
:102BCE0035E0C394095046900133E4F0A3F0209809
:102BDE0022900134E004F07006900133E004F075A9
:102BEE00FFA5D3900134E09420900133E0944E4041
:102BFE00DD801CC298900135E024D5F582E43400C6
:102C0E00F583E599F0900135E004F080B1D204C26D
:052C1E0098D2AC8F8488
:0D2C2300D007D006D0D0D082D083D0E032D0
:03002B000225A506
:1025A500C0E0C0F0C083C082C0D075D000C000C0FC
:0D25B50001C002C003C004C005C006C0077D
:1025C200858439758400C2CF9000ACE004F07006B7
:1025D2009000ABE004F0C39000ACE0940A9000AB32
:1025E200E09400500302273BE4F0A3F09000CDE01A
:1025F200FCA3E0FDA3E0FEA3E02401FFE43EFEE431
:102602003DFDE43CFC9000CD12286F9000D1E02407
:10261200FE60611470030226CA240260030227319D
:102622009000CDE0FCA3E0FDA3E0FEA3E0FF90005C
:10263200F7E0F8A3E0F9A3E0FAA3E0FBC31228381D
:10264200500302273B122C309000AAE0FFE4FCFD6D
:10265200FE900018E0F8A3E0F9A3E0FAA3E02FFF50
:10266200EE3AFEED39FDEC38FC90000B12286FD2E9
:10267200850227189000CDE0FCA3E0FDA3E0FEA3B5
:10268200E0FF9000F7E0F8A3E0F9A3E0FAA3E0FB93
:10269200C3122838500302273B122C309000AAE0C4
:1026A200FFE4FCFDFE900018E0F8A3E0F9A3E0FAD5
:1026B200A3E02FFFEE3AFEED39FDEC38FC90000B63
:1026C20012286FC2850227189000CDE0FCA3E0FD1E
:1026D200A3E0FEA3E0FF9000F7E0F8A3E0F9A3E097
:1026E200FAA3E0FBC3122838404F122C309000AA04
:1026F200E0FFE4FCFDFE900018E0F8A3E0F9A3E09F
:10270200FAA3E02FFFEE3AFEED39FDEC38FC900023
:102712000B12286FC28590000BE0FCA3E0FDA3E042
:10272200FEA3E0FF9000FE12286F123149800A904A
:0C273200000B12287B0000000085398499
:10273E00D007D006D005D004D003D002D001D000EF
:0B274E00D0D0D082D083D0F0D0E03299
:103149009000AAE0FFE4FCFDFE9000FEE0F8A3E099
:10315900F9A3E0FAA3E0FBD312282250299000FD3D
:10316900E584F0E4F584C2CAE0F584D205D2019081
:10317900001CE0FEA3E0FF7C007D0A1227C1E4FDEC
:1031890090003202286F900027E0FEA3E0FFE4FCE4
:10319900FD9000FEE0F8A3E0F9A3E0FAA3E0FBD379
:1031A9001228224011900027E0FEA3E0FFE4FCFD75
:1031B9009000FE12286F9000FEA3A3E0FEA3E0900A
:1031C900003A75F0021228ACEE25E02583F583E478
:0F31D90093FE740193FFE4F584EFF5CAEEF5CB96
:0131E80022C4
:08327E007B017A0079AD7D06A9
:083286008B248A2589268D277F
:10328E00E4F528FFFEF529F52A85842B75840FD2E7
:10329E00C9D2CBAB24AA25A926AD271237688E2911
:1032AE008F2AAB24AA25A926852782758300EF12C3
:1032BE00279F0527AE29EE7E008527827583001293
:1032CE00279F0527E4F5287F0A123B8DC2ACE4F553
:1032DE0084AB24AA25A9268528827583001227721D
:1032EE00F5993099FDC2990528E528C3952740E147
:1032FE00D2AC75840FC2C9C2CB7F0A7E00123B8D41
:03330E00852B8488
:013311002299
:0A3C9600EF1FAC0670011E4C70F623
:013CA0002201
:102E1E007F327E00123B8D75FFA5C2AC9000AD7463
:102E2E0001F0A37410F0A37451F0E4A3F0A3F0A387
:102E3E00740AF0A37414F0900102E0B40107E49058
:102E4E0000B4F080069000B47401F0E49000B5F088
:102E5E00A3F0A3F090010DE09000B8F090010EE009
:102E6E009000B9F090010FE09000BAF0900110E0E0
:102E7E009000BBF09000A6E09000BCF09000A7E0A0
:102E8E009000BDF09000A8E09000BEF09000A9E088
:102E9E009000BFF0900002E09000C0F0900003E0C0
:102EAE009000C1F0900004E09000C2F0900005E0A8
:102EBE009000C3F0900022E09000C4F0900023E058
:102ECE009000C5F0900024E09000C6F0900025E040
:102EDE009000C7F07F1E9000D5E4F0A3DFFC7F1EAC
:102EEE007B017A0079AD7D1B123286D2AC123B8902
:052EFE00300402C204D3
:012F030022AB
:09387E00E490011FF0A3F07F01AA
:103887007522008F2375FFA59000AD7401F0A37416
:1038970010F0E4A3F0A3F0A3F0A37402F0A3740460
:1038A700F0E4A3F0A3F0A3E522F0A3E523F07F1E45
:1038B7009000D5E4F0A3DFFC7F1E7B017A0079AD91
:0D38C7007D0B123286123B89300402C204D0
:0138D40022D1
:0E000E00900017E0C394144004E4F0B2A62260
:10343500AF849000D2E02429602F14604B14607192
:103445002403707A75840FC2D98F84C205E4900174
:103455001FF0A3F0C20190003AF09000D2F0900066
:103465001CF0A3F09000D3804475840FD2D98F84CB
:10347500C205E490011FF0A3F0C20190003AF0905C
:1034850000D2F090001C8025900130E07009758411
:103495000FC2DBD2DD8F84C205E490011FF0A3F0DB
:1034A500C20190003AF09000D2F090001CF0A3F019
:0E34B50022C2DBC2DDE490003AF09000D2F0BB
:0134C30022E6
:10215C009000D2E024DE7003022380244D60030241
:10216C0023BD900130E075F009A4248BF582E43492
:10217C0000F583E0FFE4FCFDFE9000F712286F9061
:10218C0000F7E0FCA3E0FDA3E0FEA3E0FF7808125B
:10219C00285C9000F712286F9000F7E0F8A3E0F9A4
:1021AC00A3E0FAA3E0FB900130E075F009A4248CC5
:1021BC00F582E43400F583E0FFE4FCFDFEEB2FFF39
:1021CC00EE3AFEED39FDEC38FC9000F712286F90DA
:1021DC0000F7E0FCA3E0FDA3E0FEA3E0FF7808120B
:1021EC00285C9000F712286F9000F7E0F8A3E0F954
:1021FC00A3E0FAA3E0FB900130E075F009A4248D74
:10220C00F582E43400F583E0FFE4FCFDFEEB2FFFE8
:10221C00EE3AFEED39FDEC38FC9000F712286F9089
:10222C0000F7E0FCA3E0FDA3E0FEA3E0FF780812BA
:10223C00285C9000F712286F9000F7E0F8A3E0F903
:10224C00A3E0FAA3E0FB900130E075F009A4248E22
:10225C00F582E43400F583E0FFE4FCFDFEEB2FFF98
:10226C00EE3AFEED39FDEC38FC9000F712286F9039
:10227C000130E0FD75F009A4248FF582E43400F5FB
:10228C0083E0FF900027E4F0A3EFF0E0F8E4F0E83F
:10229C00900027F0ED75F009A42490F582E4340049
:1022AC00F583E0FF900028E02FF0900027E0340049
:1022BC00F0900130E075F009A42491F582E434002B
:1022CC00F583E0FF900105E4F0A3EFF0E0F8E4F013
:1022DC00E8900105F0ED75F009A42492F582E43440
:1022EC0000F583E0FF900106E02FF0900105E0344B
:1022FC0000F0900130E0FF75F009A42493F582E41E
:10230C003400F583E0900126F0EF14600F14601494
:10231C00240270189000D17401F080159000D174D3
:10232C0002F0800D9000D17403F08005E49000D190
:10233C00F0C2059000CD12287B0000000090001820
:10234C0012287B000000009000FDE584F0E4F58489
:10235C00D2CAE0F584E490011FF0A3F0C201900012
:10236C003AF09000D2F090001CF0A3F0900016749C
:10237C0064F0803D9000FDE584F0E4F584C2CAE091
:10238C00F5849000F712287B000000009000CD121D
:10239C00287B0000000090001812287B0000000031
:1023AC00E4900016F09000D1F090003AF09000D23A
:0423BC00F00236EE07
:1023C000E4F521900130E0C454F0F521EF24EF60F2
:1023D00076243F606914700302245D1470030225A3
:1023E00091240460030225A4C28C75FFA57F01120D
:1023F0003887900006E0FCA3E0FDA3E0FEA3E0FF29
:1024000090010D12286F9000F3E0FCA3E0FDA3E023
:10241000FEA3E0FF9000A612286F90000212287B16
:10242000000003E890002212287B000003E8122E2F
:102430001E7F031238877F01123887022599C28CCC
:1024400075FFA5E4FF8007C28C75FFA57F011238D8
:1024500087E490003AF09000D2F0D28C22C28C75C2
:10246000FFA5C207743B2521F582E43400F583E023
:1024700090010DF0743C2521F582E43400F583E0F1
:1024800090010EF0743D2521F582E43400F583E0DF
:1024900090010FF0743E2521F582E43400F583E0CD
:1024A000900110F0743F2521F582E43400F583E0BB
:1024B0009000A6F074402521F582E43400F583E015
:1024C0009000A7F074412521F582E43400F583E003
:1024D0009000A8F074422521F582E43400F583E0F1
:1024E0009000A9F074432521F582E43400F583E0DF
:1024F000900002F074442521F582E43400F583E075
:10250000900003F074452521F582E43400F583E062
:10251000900004F074462521F582E43400F583E050
:10252000900005F074472521F582E43400F583E03E
:10253000900022F074482521F582E43400F583E010
:10254000900023F074492521F582E43400F583E0FE
:10255000900024F0744A2521F582E43400F583E0EC
:10256000900025F012387E122E1E7F031238877FCE
:1025700001123887E490001CF0A3F09000D2F09094
:10258000003AF0C20090011AE04401F0D207D28C68
:1025900022C28C75FFA5123C75E49000D2F0900029
:0425A0003AF0D28CAF
:0125A4002214
:103C1E00858421EF241F6008047011123C75800CFE
:0F3C2E0075FFA5C28CE4FF123887D28C852184E4
:013C3D002264
:102A1700858421900130E0FDC454F0FEEDC3940499
:102A270040037404F0EF2410B408004003022B2B7A
:102A3700902A4575F003A4C58325F0C58373022A40
:102A47005D022AAB022AC3022AFD022B0B022B13BB
:102A5700022B18022B25C28C75FFA5C20790010D0A
:102A670012287B000017709000A612287B00009C9C
:102A77004090000212287B000000C8900022122814
:102A87007B000000C812387E122E1E7F0312388783
:102A97007F01123887E490001CF0A3F0C200900079
:102AA70000F0804575FFA575840FC2DB123C93E4E7
:102AB7009000D3F0A3F0900026F08065123C8BC203
:102AC7008C852184C20790010D12287B000001F438
:102AD70012387E122E1E7F031238877F0112388725
:102AE700E490001CF0A3F0C20090011AE04401F04A
:102AF700D207D28C802E75FFA5C28CE4FF123887CF
:102B0700D28C802075FFA575840F8015123C7580C7
:102B17001375FFA575840FC2DB12001C8003123CDE
:072B27008B852184852184C8
:012B2E002284
:083768008B2C8A2D892E8D2F78
:1037700074FFFFFEAD2F152FED604BAB2C052EE532
:103780002EAA2D7002052D14F91227596207E4F5AF
:1037900030F531C3E5319408E5306480948050D42D
:1037A000EF30E011EEC313FEEF13FFEE64A0FEEF67
:1037B0006401FF8007EEC313FEEF13FF0531E5310F
:0637C00070D1053080CD40
:0137C60022E0
:103C7500C28C75FFA57F05123887C20090011AE036
:063C85004440F0D28C2245
:0235DD008F124B
:1035DF003000030236657F327E00123B8D9000ADC6
:1035EF00E512F0A37403F0A37410F0A37403F0E4D6
:1035FF00A3F0A37406F07B017A0079ADFD12328639
:10360F00D2037F1E9000D5E4F0A3DFFC123B89307C
:10361F000442C2049000DCE0900112F09000DDE063
:10362F00900113F09000DEE0900114F09000DFE0C5
:10363F00900115F09000E0E0900116F09000E1E0AD
:10364F00900117F09000E2E0900118F09000E3E095
:06365F00900119F0C20306
:013665002242
:103826002005547F327E00123B8D9000AD7402F06D
:10383600A304F0E4A3F0A3F0A3F0A37408F07F1EA2
:103846009000D5E4F0A3DFFC7F1E12327E123B8788
:10385600300422C2049000D8E090011BF09000D9F9
:10386600E090011CF09000DAE090011DF09000DB82
:07387600E090011EF0C20307
:01387D002228
:1039ED009000D2E0FF700690003AE0600C90003A33
:1039FD00E064FE6004EFB4FE27E4FF1231E99001AC
:103A0D0007E014600A04700A7F011235DD8003128D
:103A1D003826900107E004F0E0C394024002E4F080
:013A2D002276
:0231E9008F2332
:1031EB00E523700630000302327D75FFA57F327E2A
:1031FB0000123B8D9000AD7401F0A37403F0A37427
:10320B0001F0E4A3F0A3F0A37402F07F1E9000D5AD
:10321B00E4F0A3DFFC7F1E12327E123B873004509A
:10322B00C20490001CE0FEA3E0FF7C007D0A122785
:10323B00C1900103EEF0A3EFF09000DBE0FD30E076
:10324B001DE5237002D200900103E0FAA3E0FBEA34
:10325B0090011FF0EBA3F090011AE054FEF0ED305B
:10326B00E10EE523B40102D20090011AE054BFF045
:02327B00C2038C
:01327D00222E
:10002E00900102E01460220470599000D2E0700832
:10003E0090003AE09000D2F012215C123435300775
:10004E00429000D2E0FF0223C09000D2E0FF700980
:10005E0090003AE09000D2F022EFB4FE02801990A8
:10006E0000D2E0B4FB0B1237C790000AEFF0023C4F
:10007E001E9000D2E0B4B00B1228DE90000AEFF012
:04008E00122A1722F9
:1028DE00E4F5218584229000CBE014B40900400376
:1028EE00022A149028FF75F003A4C58325F0C58332
:1028FE007302291A02292D022A140229530229A22F
:10290E000229B90229CD0229D80229FC7521F0909D
:10291E00011AE04401F09000CB7402F0022A14E494
:10292E00FF1231E990011AE030E003022A147521FA
:10293E00F1E4900020F0A3F090010CF09000CB7425
:10294E0004F0022A14D3900021E094C8900020E0F5
:10295E0094005003022A1490011AE030E3249001EF
:10296E000CE004F0E09403500AE4900020F0A3F091
:10297E00022A14123C8E8522849000CB7407F0023A
:10298E002A147521F290011AE04401F09000CB74E4
:10299E0005F08072E4FF1231E990011AE020E06642
:1029AE007521F59000CB7406F0805B7F011231E942
:1029BE0090011AE020E64F9000007401F08000753F
:1029CE0021F39000CB7408F0803CE49000CBF090A3
:1029DE0000D2F090003AF0900130F090011174C2E4
:1029EE00F090001F7433F0E490001EF080189001F8
:1029FE0030E024FE60080470087521F6800375210E
:082A0E00F7E49000CBF0AF21CA
:012A1600229D
:1037C700E4F5219000CBE024FE601214602C240263
:1037D700704A7521E09000CB7402F0803F7F0112A0
:1037E70031E990011AE020E6339000007401F0758A
:1037F70021E19000CB7403F08022E49000CBF0909D
:1038070000D2F090003AF0900130F090011174C3AB
:0E381700F090001F7415F0E490001EF0AF2139
:013825002280
:103312009000FBE02404703A900132E0900029F022
:10332200900130E090002BF09000FBE090002AF03A
:1033320090011AE090002CF0900000E090002DF037
:103342009000CBE090002EF09000CCE090002FF0A7
:10335200802B900132E0900029F0900130E0900043
:103362002BF09000D2E090002AF0900102E0900051
:103372002CF0A37422F0A37433F0E4A3F0E4FFFE74
:1033820074292EF582E43400F583E02FFF0EEEC39C
:10339200940740EC900030EFF07B017A0079297FAE
:0433A200020235529C
:10309D00900015E0C394325003023148E4F0F5116D
:1030AD009000297401F090002BE511F090002A7426
:1030BD00C1F0E51125E025E02412F582E43401F597
:1030CD0083E090002CF0E51125E025E02413F58236
:1030DD00E43401F583E090002DF0E51125E025E0C5
:1030ED002414F582E43401F583E090002EF0E5110F
:1030FD0025E025E02415F582E43401F583E0900008
:10310D002FF0E4F510FF74292FF582E43400F583D8
:10311D00E02510F5100FEFC3940740EA900030E55D
:10312D0010F07B017A0079297F021235520511E5E5
:0B313D0011C3940550030230ADB290A6
:013148002264
:1034C400900001E0700302355190001FE0D3943264
:1034D400407BE4F0900111E0FD6072C28C75FFA5A1
:1034E400900132E0900029F0900130E090002BF040
:1034F40090002AEDF090011AE090002CF09000006A
:10350400E090002DF09000CBE090002EF09000CCE5
:10351400E090002FF0E4FEFF74292FF582E43400DC
:10352400F583E02EFE0FEFC3940740EC900030EEDD
:10353400F07B017A0079297F0212355290001EE057
:0D35440004F0E4900111F090001EF0D28C14
:013551002257
:103666009000D2E02440604E2420B40D00505390C8
:10367600368375F003A4C58325F0C583730236AC83
:103686000236AC0236C80236C80236AC0236AC0286
:1036960036AC0236AC0236AC0236AC0236AC02367A
:1036A600AC0236AC8000123312E49000D2F09000E7
:1036B6003AF0C206800C12103EE49000D2F0900060
:1036C6003AF09000FBE02404600D24FB70191233DD
:1036D60012E49000FBF022900001E0600312331226
:0836E600E49000FBF0C2062293
:10103E00900132E0900029F0E490002BF09000D265
:10104E00E090002AF090003BE090002CF090003CE5
:10105E00E090002DF090003DE090002EF090003ECC
:10106E00E090002FF0E4FFFE74292EF582E43400A8
:10107E00F583E02FFF0EEEC3940740EC900030EFA7
:10108E00F07B017A0079297F02123552900132E00D
:10109E00900029F090002B7401F09000D2E09000A7
:1010AE002AF090003FE090002CF0900040E090007D
:1010BE002DF0900041E090002EF0900042E0900064
:1010CE002FF0E4FFFE74292EF582E43400F583E060
:1010DE002FFF0EEEC3940740EC900030EFF07B0133
:1010EE007A0079297F02123552900132E090002960
:1010FE00F090002B7402F09000D2E090002AF09055
:10110E000043E090002CF0900044E090002DF09011
:10111E000045E090002EF0900046E090002FF0E4A5
:10112E00FFFE74292EF582E43400F583E02FFF0EC6
:10113E00EEC3940740EC900030EFF07B017A00791B
:10114E00297F02123552900132E0900029F0900072
:10115E002B7403F09000D2E090002AF0900047E04C
:10116E0090002CF0900048E090002DF0900049E0A7
:10117E0090002EF090004AE090002FF0E4FFFE74F5
:10118E00292EF582E43400F583E02FFF0EEEC39492
:10119E000740EC900030EFF07B017A0079297F0256
:1011AE00123552900132E0900029F090002B740419
:1011BE00F09000D2E090002AF090004BE090002CCE
:1011CE00F090004CE090002DF090004DE090002E3D
:1011DE00F090004EE090002FF0E4FFFE74292EF503
:1011EE0082E43400F583E02FFF0EEEC3940740EC4B
:1011FE00900030EFF07B017A0079297F0212355290
:10120E00900132E0900029F090002B7405F09000D0
:10121E00D2E090002AF090004FE090002CF0900069
:10122E0050E090002DF0900051E090002EF09000D4
:10123E0052E090002FF0E4FFFE74292EF582E43484
:10124E0000F583E02FFF0EEEC3940740EC900030C4
:10125E00EFF07B017A0079297F021235529001322C
:10126E00E0900029F090002B7406F09000D2E090F0
:10127E00002AF0900053E090002CF0900054E09083
:10128E00002DF0900055E090002EF0900056E0906A
:10129E00002FF0E4FFFE74292EF582E43400F5836E
:1012AE00E02FFF0EEEC3940740EC900030EFF07B82
:1012BE00017A0079297F02123552900132E09000B6
:1012CE0029F090002B7407F09000D2E090002AF0E5
:1012DE00900057E090002CF0900058E090002DF018
:1012EE00900059E090002EF090005AE090002FF000
:1012FE00E4FFFE74292EF582E43400F583E02FFF1F
:10130E000EEEC3940740EC900030EFF07B017A00B4
:10131E0079297F02123552900132E0900029F09027
:10132E00002B7408F09000D2E090002AF090005B41
:10133E00E090002CF090005CE090002DF090005DAD
:10134E00E090002EF090005EE090002FF0E4FFFEA3
:10135E0074292EF582E43400F583E02FFF0EEEC3E0
:10136E00940740EC900030EFF07B017A0079297FF2
:10137E0002123552900132E0900029F090002B7449
:10138E0009F09000D2E090002AF090005FE090000B
:10139E002CF0900060E090002DF0900061E0900045
:1013AE002EF0900062E090002FF0E4FFFE74292EE4
:1013BE00F582E43400F583E02FFF0EEEC394074070
:1013CE00EC900030EFF07B017A0079297F02123524
:1013DE0052900132E0900029F090002B740AF090A8
:1013EE0000D2E090002AF0900063E090002CF09084
:1013FE000064E090002DF0900065E090002EF090DB
:10140E000066E090002FF0E4FFFE74292EF582E4D2
:10141E003400F583E02FFF0EEEC3940740EC9000EE
:10142E0030EFF07B017A0079297F0212355290015C
:10143E0032E0900029F090002B740BF09000D2E077
:10144E0090002AF0900067E090002CF0900068E089
:10145E0090002DF0900069E090002EF090006AE070
:10146E0090002FF0E4FFFE74292EF582E43400F58F
:10147E0083E02FFF0EEEC3940740EC900030EFF0A8
:10148E007B017A0079297F02123552900132E09069
:10149E000029F090002B740CF09000D2E090002AFE
:1014AE00F090006BE090002CF090006CE090002D1E
:1014BE00F090006DE090002EF090006EE090002F06
:1014CE00F0E4FFFE74292EF582E43400F583E02F5C
:1014DE00FF0EEEC3940740EC900030EFF07B017AE4
:1014EE000079297F02123552900132E0900029F0E6
:1014FE0090002B740DF09000D2E090002AF0900036
:10150E006FE090002CF0900070E090002DF09000B5
:10151E0071E090002EF0900072E090002FF0E4FF4A
:10152E00FE74292EF582E43400F583E02FFF0EEED3
:10153E00C3940740EC900030EFF07B017A007929DC
:10154E007F02123552900132E0900029F090002B6C
:10155E00740EF09000D2E090002AF0900073E090AC
:10156E00002CF0900074E090002DF0900075E0904B
:10157E00002EF0900076E090002FF0E4FFFE74292C
:10158E002EF582E43400F583E02FFF0EEEC39407B0
:10159E0040EC900030EFF07B017A0079297F021247
:1015AE003552900132E0900029F090002B740FF02C
:1015BE009000D2E090002AF0900077E090002CF09E
:1015CE00900078E090002DF0900079E090002EF0E1
:1015DE0090007AE090002FF0E4FFFE74292EF58241
:1015EE00E43400F583E02FFF0EEEC3940740EC9039
:1015FE000030EFF07B017A0079297F02123552908C
:10160E000132E0900029F090002B7410F09000D27F
:10161E00E090002AF090007BE090002CF090007C8F
:10162E00E090002DF090007DE090002EF090007E76
:10163E00E090002FF0E4FFFE74292EF582E43400D2
:10164E00F583E02FFF0EEEC3940740EC900030EFD1
:10165E00F07B017A0079297F02123552900132E037
:10166E00900029F090002B7411F09000D2E09000C1
:10167E002AF090007FE090002CF0900080E0900027
:10168E002DF0900081E090002EF0900082E090000E
:10169E002FF0E4FFFE74292EF582E43400F583E08A
:1016AE002FFF0EEEC3940740EC900030EFF07B015D
:1016BE007A0079297F02123552900132E09000298A
:1016CE00F090002B7412F09000D2E090002AF0906F
:1016DE000083E090002CF0900084E090002DF090BC
:1016EE000085E090002EF0900086E090002FF0E450
:1016FE00FFFE74292EF582E43400F583E02FFF0EF1
:10170E00EEC3940740EC900030EFF07B017A007945
:10171E00297F02123552900132E0900029F090009C
:10172E002B7413F09000D2E090002AF0900087E026
:10173E0090002CF0900088E090002DF0900089E051
:10174E0090002EF090008AE090002FF0E4FFFE74DF
:10175E00292EF582E43400F583E02FFF0EEEC394BC
:10176E000740EC900030EFF07B017A0079297F0280
:10177E00123552900132E0900029F090002B741433
:10178E00F09000D2E090002AF090008BE090002CB8
:10179E00F090008CE090002DF090008DE090002EE7
:1017AE00F090008EE090002FF0E4FFFE74292EF5ED
:1017BE0082E43400F583E02FFF0EEEC3940740EC75
:1017CE00900030EFF07B017A0079297F02123552BA
:1017DE00900132E0900029F090002B7415F09000EB
:1017EE00D2E090002AF090008FE090002CF0900054
:1017FE0090E090002DF0900091E090002EF090007F
:10180E0092E090002FF0E4FFFE74292EF582E4346E
:10181E0000F583E02FFF0EEEC3940740EC900030EE
:10182E00EFF07B017A0079297F0212355290013256
:10183E00E0900029F090002B7416F09000D2E0900A
:10184E00002AF0900093E090002CF0900094E0902D
:10185E00002DF0900095E090002EF0900096E09014
:10186E00002FF0E4FFFE74292EF582E43400F58398
:10187E00E02FFF0EEEC3940740EC900030EFF07BAC
:10188E00017A0079297F02123552900132E09000E0
:10189E0029F090002B7417F09000D2E090002AF0FF
:1018AE00900097E090002CF0900098E090002DF0C2
:1018BE00900099E090002EF090009AE090002FF0AA
:1018CE00E4FFFE74292EF582E43400F583E02FFF49
:1018DE000EEEC3940740EC900030EFF07B017A00DF
:1018EE0079297F02123552900132E0900029F09052
:1018FE00002B7418F09000D2E090002AF090009B1C
:10190E00E090002CF090009CE090002DF090009D57
:10191E00E090002EF090009EE090002FF0E4FFFE8D
:10192E0074292EF582E43400F583E02FFF0EEEC30A
:10193E00940740EC900030EFF07B017A0079297F1C
:10194E0002123552900132E0900029F090002B7473
:10195E0019F09000D2E090002AF090009FE09000E5
:10196E002CF09000A0E090002DF09000A1E09000EF
:10197E002EF09000A2E090002FF0E4FFFE74292ECE
:10198E00F582E43400F583E02FFF0EEEC39407409A
:10199E00EC900030EFF07B017A0079297F0212354E
:1019AE0052900132E0900029F090002B741AF090C2
:1019BE0000D2E090002AF09000A3E090002CF0906E
:1019CE0000A4E090002DF09000A5E090002EF0E431
:1019DE00A3F0FFFE74292EF582E43400F583E02F88
:1019EE00FF0EEEC3940740EC900030EFF07B017ACF
:0819FE000079297F0202355235
:1039A900A984C2AFE4F58443B701438F07FFFEF54D
:1039B90082F583F0538FFDFD743B2DF582E43400CD
:1039C900F583E0FC0FEFAA0670010E14F5828A83D5
:1039D900ECF00DEDC3946B40DF538FFA53B7FED271
:0339E900AF89841F
:0139EC0022B8
:103B1B00AF84C2AFE4F584438F04FDFCFE0DEDAA28
:103B2B000470010C14F5828A83E493FB743B2EF52D
:103B3B0082E43400F583EBF00EEEC3946B40DE535E
:063B4B008FFBD2AF8F8456
:013B51002251
:103BFB009001327401F090003A74FBF0E4900130C4
:103C0B00F09000CB04F09000157433F09001027427
:033C1B0001F02293
:103C3E0075840F123B527FE87E03123B8D123BFBC5
:0E3C4E0012002E1236661234C412000E80F2DE
:1033B500023C3EE493A3F8E493A34003F68001F2B4
:1033C50008DFF48029E493A3F85407240CC8C33319
:1033D500C4540F4420C8834004F456800146F6DFE8
:1033E500E4800B0102040810204080902D2DE47E1E
:1033F500019360BCA3FF543F30E509541FFEE493DD
:10340500A360010ECF54C025E060A840B8E493A3A3
:10341500FAE493A3F8E493A3C8C582C8CAC583CACE
:10342500F0A3C8C582C8CAC583CADFE9DEE780BE86
:012E1D0000B4
:10275900BB010689828A83E0225002E722BBFE027E
:09276900E32289828A83E49322B1
:10277200BB010CE58229F582E5833AF583E022501C
:1027820006E92582F8E622BBFE06E92582F8E22266
:0D279200E58229F582E5833AF583E4932280
:10279F00F8BB010DE58229F582E5833AF583E8F070
:1027AF00225006E92582C8F622BBFE05E92582C81C
:0227BF00F22204
:1027C100EF8DF0A4A8F0CF8CF0A428CE8DF0A42E2C
:0227D100FE22E6
:1027D300E88FF0A4CC8BF0A42CFCE98EF0A42CFCA5
:1027E3008AF0EDA42CFCEA8EF0A4CDA8F08BF0A423
:1027F3002DCC3825F0FDE98FF0A42CCD35F0FCEB82
:102803008EF0A4FEA9F0EB8FF0A4CFC5F02ECD3946
:0F281300FEE43CFCEAA42DCE35F0FDE43CFC22B3
:10282200EB9FF5F0EA9E42F0E99D42F0EC6480C82D
:0628320064809845F022CD
:10283800EB9FF5F0EA9E42F0E99D42F0E89C45F0F6
:01284800226D
:10284900E8600FECC313FCED13FDEE13FEEF13FF6D
:03285900D8F12291
:10285C00E8600FEFC333FFEE33FEED33FDEC33FCDA
:03286C00D8F1227E
:0C286F00ECF0A3EDF0A3EEF0A3EFF022DC
:10287B00A8828583F0D083D08212289212289212DC
:10288B002892122892E473E493A3C583C5F0C58301
:10289B00C8C582C8F0A3C583C5F0C583C8C582C8A7
:0128AB00220A
:0C28AC00A42582F582E5F03583F5832237
:1028B800D083D082F8E4937012740193700DA3A3AF
:1028C80093F8740193F5828883E4737402936860C3
:0628D800EFA3A3A380DFC3
:00000001FF
