:03000000021FF4E8
:0F1FF40053D9BF787FE4F6D8FD75816902203E8E
:081CB100410122004101210064
:10270A0085842275840F43E480C2AF12280D90019C
:10271A0018E02440FDE433FC7F081225929001184A
:10272A00E0FD7C007F0112265A43E72043F720127E
:07273A00261BD2AF852284AB
:012741002275
:10280D00AF8475840175DA0975D8FF7E0175DA0814
:08281D008ED80EBE21F78F8456
:012825002290
:02265A00AB07CC
:10265C00AA8475840175DA2175D90075D8BB75DA31
:10266C0024E4F5D9F5D8EDAE047802C333CE33CEDD
:10267C00D8F9FF53061F4306808ED98FD875D9140D
:0A268C0075D88875DA208BD88A848F
:012696002221
:02259200AB0795
:10259400AA8475840175DA0975D90075D8B375DA1A
:1025A4000CE4F5D9F5D8EDAE047802C333CE33CEBE
:1025B400D8F9FF53061F4306A08ED98FD875D910BA
:1025C40075D88875DA08AF03EF3395E0F5D98FD85D
:0225D4008A84F7
:0125D60022E2
:10261B00AF8475840143F84175DA039000FBE0FE4B
:10262B00B4030875D92675D840801EEEB402087520
:10263B00D92675D8418012EEB4010875D92675D804
:0E264B0043800675D92675D84775F80A8F8426
:01265900225E
:08219B008B228A238924AD0781
:1021A300858425758401E4900024F075DA40ED14EC
:1021B300FF74017E00A807088005C333CE33CED851
:1021C300F9FFE5D95EFEE5D85F4E600A900024E092
:1021D300C3940340D922C2AF75DA0975D90075D803
:1021E3008775DA0FE4FFEFC394085020EFF582758B
:1021F3008300A3AB22AA23A924121B08F5D98F823B
:10220300758300121B08F5D80F0F80DA75DA088D75
:06221300D8D2AF8525843E
:0122190022A2
:06254A008B678A688969B5
:10255000AE8475840175DA2175D80FC2AF75DA20A3
:102560008FD875DA27E4FFEFC394085020EFF58287
:10257000758300A3AB67AA68A969E5D9121B358FDB
:1025800082758300E5D8121B350F0F80DAD2AF8E2B
:0125900084C6
:012591002227
:03009B00020A66F0
:100A6600C0E0C0F0C083C082C0D075D000C000C056
:0D0A760001C002C003C004C005C006C007D7
:100A830085846675840185C065E56520E4030211EC
:100A9300FEE5C054EF4407F5C075DA50AFD8AED9C0
:100AA300EF20E0030211FC7B017A0179197F011227
:100AB300254A90011AE0121BB9101A110B17A00C4A
:100AC30004A10CF4A40D63A50DD2A60E41A70EB08C
:100AD300A80F23A90F6BAA0FB3AB0FEDAC11A0B2F4
:100AE30011CCB3101AC0100AC2100CC3101AD010C4
:100AF3001AD2101AD3101AD4101AD5101AD6101AE3
:100B0300D7101AD81171FB1166FC1132FD103AFE91
:100B1300000011FC900119E0900122F090011AE00D
:100B2300900040F090011BE0900121F090011CE047
:100B3300FFE4FCFDFE900005121B7C900005E0FC29
:100B4300A3E0FDA3E0FEA3E0FF7808121B69900079
:100B530005121B7C900005E0F8A3E0F9A3E0FAA3DB
:100B6300E0FB90011DE0FFE4FCFDFEEB2FFFEE3AFE
:100B7300FEED39FDEC38FC900005121B7C9000055E
:100B8300E0FCA3E0FDA3E0FEA3E0FF7808121B69ED
:100B9300900005121B7C900005E0F8A3E0F9A3E0A8
:100BA300FAA3E0FB90011EE0FFE4FCFDFEEB2FFF48
:100BB300EE3AFEED39FDEC38FC900005121B7C90FB
:100BC3000005E0FCA3E0FDA3E0FEA3E0FF7808122C
:100BD3001B69900005121B7C900005E0F8A3E0F967
:100BE300A3E0FAA3E0FB90011FE0FFE4FCFDFEEBB2
:100BF3002FFFEE3AFEED39FDEC38FC900005020CB8
:100C0300EE900119E0900122F090011AE09000406B
:100C1300F090011BE0900121F090011CE0FFE4FC47
:100C2300FDFE9000F2121B7C9000F2E0FCA3E0FDBD
:100C3300A3E0FEA3E0FF7808121B699000F2121BE9
:100C43007C9000F2E0F8A3E0F9A3E0FAA3E0FB90C4
:100C5300011DE0FFE4FCFDFEEB2FFFEE3AFEED3954
:100C6300FDEC38FC9000F2121B7C9000F2E0FCA338
:100C7300E0FDA3E0FEA3E0FF7808121B699000F2F9
:100C8300121B7C9000F2E0F8A3E0F9A3E0FAA3E0E2
:100C9300FB90011EE0FFE4FCFDFEEB2FFFEE3AFEAE
:100CA300ED39FDEC38FC9000F2121B7C9000F2E071
:100CB300FCA3E0FDA3E0FEA3E0FF7808121B69900C
:100CC30000F2121B7C9000F2E0F8A3E0F9A3E0FA33
:100CD300A3E0FB90011FE0FFE4FCFDFEEB2FFFEE22
:100CE3003AFEED39FDEC38FC9000F2121B7C020F4A
:100CF300E3900119E0900122F090011AE090004086
:100D0300F090011BE0900121F090011CE0FF9001A5
:100D130021E0FEC454F02441F582E43400F583EF6E
:100D2300F090011DE0FFEEC454F02442F582E43458
:100D330000F583EFF090011EE0FFEEC454F024436E
:100D4300F582E43400F583EFF090011FE0FFEEC479
:100D530054F02444F582E43400F583EFF0020FE30A
:100D6300900119E0900122F090011AE0900040F008
:100D730090011BE0900121F090011CE0FF90012104
:100D8300E0FEC454F02445F582E43400F583EFF02B
:100D930090011DE0FFEEC454F02446F582E43400D4
:100DA300F583EFF090011EE0FFEEC454F02447F505
:100DB30082E43400F583EFF090011FE0FFEEC454AA
:100DC300F02448F582E43400F583EFF0020FE3905A
:100DD3000119E0900122F090011AE0900040F09098
:100DE300011BE0900121F090011CE0FF900121E044
:100DF300FEC454F02449F582E43400F583EFF09007
:100E0300011DE0FFEEC454F0244AF582E43400F5FA
:100E130083EFF090011EE0FFEEC454F0244BF58203
:100E2300E43400F583EFF090011FE0FFEEC454F0CB
:100E3300244CF582E43400F583EFF0020FE39001D4
:100E430019E0900122F090011AE0900040F0900127
:100E53001BE0900121F090011CE0FF900121E0FED6
:100E6300C454F0244DF582E43400F583EFF090018F
:100E73001DE0FFEEC454F0244EF582E43400F58304
:100E8300EFF090011EE0FFEEC454F0244FF582E42E
:100E93003400F583EFF090011FE0FFEEC454F0241B
:100EA30050F582E43400F583EFF0020FE39001196B
:100EB300E0900122F090011AE0900040F090011BB5
:100EC300E0900121F090011CE0FF900121E0FE750C
:100ED300F009A42491F582E43400F583EFF0900146
:100EE3001DE0FFEE75F009A42492F582E43400F5C9
:100EF30083EFF090011EE0FFEE75F009A42493F553
:100F030082E43400F583EFF090011FE0FFEE75F00B
:100F130009A42494F582E43400F583EFF0020FE38F
:100F2300900119E0900122F090011AE0900040F046
:100F330090011BE0900121F090011EE0FF90012140
:100F4300E0FE75F009A42495F582E43400F583EFFF
:100F5300F090011FE0FFEE75F009A42496F582E4FA
:100F63003400F583EFF08078900119E0900122F0CE
:100F730090011AE0900040F090011BE0900121F0F5
:100F830090011EE0FF900121E0FE75F009A4249773
:100F9300F582E43400F583EFF090011FE0FFEE7576
:100FA300F009A42498F582E43400F583EFF080304F
:100FB300900119E0900122F090011AE0900040F0B6
:100FC30090011BE0900121F090011FE0FF900121AF
:100FD300E075F009A42499F582E43400F583EFF079
:100FE3009000FDE4F0D2080211FC900119E0900199
:100FF30022F090011AE0900040F090011BE0900174
:1010030021F01225D7802880009000FD7401F09014
:101013000103E4F00211FC900119E0900122F09029
:10102300011AE0900040F090011BE0900121F09044
:1010330000FDE4F00211FC9000CEE060030211FC1D
:10104300900119E0900122F090011AE0900040F025
:1010530090011BE0900121F090011CE0FFE4FCFDF6
:10106300FE900005121B7C900005E0FCA3E0FDA3AD
:10107300E0FEA3E0FF7808121B69900005121B7CB9
:10108300900005E0F8A3E0F9A3E0FAA3E0FB9001E8
:101093001DE0FFE4FCFDFEEB2FFFEE3AFEED39FD14
:1010A300EC38FC900005121B7C900005E0FCA3E0EB
:1010B300FDA3E0FEA3E0FF7808121B699000051270
:1010C3001B7C900005E0F8A3E0F9A3E0FAA3E0FBA2
:1010D30090011EE0FFE4FCFDFEEB2FFFEE3AFEED78
:1010E30039FDEC38FC900005121B7C900005E0FCF8
:1010F300A3E0FDA3E0FEA3E0FF7808121B699000C4
:1011030005121B7C900005E0F8A3E0F9A3E0FAA325
:10111300E0FB90011FE0FFE4FCFDFEEB2FFFEE3A46
:10112300FEED39FDEC38FC900005121B7C8021900C
:1011330000CEE060030211FC900119E0900122F05F
:1011430090011AE0900040F090011BE0900121F023
:101153009000CE7401F0900113E05402F090011559
:10116300E4803190011AE09000FAF00211F6900049
:10117300CEE060030211FC900119E0900122F0908F
:10118300011AE0900040F090011BE0900121F090E3
:1011930000CE7401F09000257433F080569000CE99
:1011A300E07056900119E0900122F090011AE0904E
:1011B3000040F090011BE0900121F09000CE7414E8
:1011C300F09000257433F0802A9000CEE0702A90CE
:1011D3000119E0900122F090011AE0900040F09094
:1011E300011BE0900121F09000CE7415F0900025D2
:1011F3007433F09000FD7401F0D2B4E56530E30878
:10120300E5C054F74407F5C0E5655407601164076A
:10121300600D43C007E56530E70353F8FEC2B485AC
:021223006684DF
:10122500D007D006D005D004D003D002D001D0001D
:0B123500D0D0D082D083D0F0D0E032C7
:101CB9004100FD00410026004100240041002500AB
:101CC900420027000042002A000041002C00410088
:101CD90009004100D30041004000410104004101D5
:101CE9000300410029004100FA004100FC004100C5
:101CF90023004100FB00410118004100D2004400CB
:101D0900F6000000004100FE0041000B0041000AFE
:101D190000C107C104C18AC180C185C103C101C114
:101D290008C102C109C1064100390042010500008C
:101D39004100D100440005000000004400F2000009
:101D4900000044000C0000000044003C00000000BA
:101D590042003A0000410000000B09011000000098
:091D690002040000000101080160
:06277900D2D97FE87E03C7
:04277F008E5F8F607A
:102783007561037562E8E5601560AE5F7002155F01
:0C2793004E6009AF62AE6112288E80EA31
:01279F002217
:0700030053FF7F43FF0722BA
:1026D1001227C71200031226971227A075840FE54F
:1026E100F85403900000F0E5F8547F900118F0E0F1
:1026F100FFC4540FF0E49000FBF0122083D2BDD24E
:09270100B975FFA5D2AFC2862212
:1027A000AF84E4F584758921F587758DFD758BFD02
:1027B000C28FD28E758CDCF58AC28DD28CD2A9756F
:0627C0009850D2AC8F849A
:0127C60022F0
:03000B0002189642
:10189600C0E0C083C082C0D075D000C004C005C0FF
:0118A600063B
:1018A700AC8475FFA575840F900024E004F0A3E0D5
:1018B70004F0A3E004F0900028E004F07006900024
:1018C70027E004F090002CE004F090002BE004F0F7
:1018D700700690002AE004F0900009E004F09001FF
:1018E70006E004F07006900105E004F0900009E0BE
:1018F700C394044047300744D204C207E4FE900073
:1019070039E0FDEEC39D502774D42EF582E43400F0
:10191700F583E0FD74102EF582E43400F583EDF0D5
:1019270074D42EF582E43400F583E4F00E80CF9072
:101937000039E0900023F0900039E4F075840F201F
:10194700830DD2DBC292900114E04401F08009D2EA
:1019570092900114E054FEF075840F20820BD2D9C7
:10196700900114E04402F08007900114E054FDF068
:1019770075840F20A20DD2DFC294900114E04404B5
:10198700F08009D294900114E054FBF075840F2085
:10199700A00BD2DD900114E04408F08007900114F9
:0F19A700E054F7F0758400758CDC758A008C8431
:0F19B600D006D005D004D0D0D082D083D0E0327C
:10269700AF8475840F75840F75E10475E23475E3B3
:1026A7004075840F75A4F175A5FFE4F5A6F5A77528
:1026B7009CFF759DFFF59EF59F75ADFF75AEFF7588
:0926C700AFFFF58475A3278F8491
:0126D00022E7
:1027C700AF8475840F758C67E4FDFC0DBD00010CAB
:1027D700E4B505F7ECB401F3E58C30E7FB75970139
:0227E7008F84DD
:0127E90022CD
:10208300E4FF74192FF582E43401F583E4F074312D
:102093002FF582E43400F583E4F00FBF08E412283F
:1020A3003FE49000FAF09000FD7402F0E49000D257
:1020B300F09000F6121B8800000000C2C9C2CBE4F6
:1020C3009000D1F0900005121B880007A12090001A
:1020D300F2121B880000C35090000C121B880000F2
:1020E300006490003C121B88000000647F6B90002A
:1020F30041E4F0A3DFFC7F11900107E4F0A3DFFCD0
:0E210300122742E49000CEF0A3F0A3F0D20A1F
:0121110022AB
:10283F00900118E024FE600C146009146006240354
:08284F007005800012270A2227
:10000E0030011090003AE0FCA3E0FDEC900115F0F9
:04001E00EDA3F0223C
:030023000224F9BB
:1024F900C0E0C083C082C0D075D000C005C006C08E
:0125090007CA
:10250A00AF847584009000D3E070033003233098C1
:10251A001EC298AE99D207900039E0FD04F074D437
:10252A002DF582E43400F583EEF0900009E4F08F93
:01253A00841C
:0F253B00D007D006D005D0D0D082D083D0E032E8
:061F62007B017A0079B05A
:081F68008B578A5889598D5AE4
:101F7000E4F55BFFFEF55CF55D85845E75840FD24C
:101F8000C9D2CBAB57AA58A959AD5A1224478E5C77
:101F90008F5DAB57AA58A959855A82758300EF12F5
:101FA0001B35055AAE5CEE7E00855A8275830012A1
:101FB0001B35055AE4F55B7F0A12277FC2ACE4F5B6
:101FC00084AB57AA58A959855B82758300121B08F8
:101FD000F5993099FDC299055BE55BC3955A40E1DF
:101FE000D2AC75840FC2C9C2CB7F0A7E0012277F94
:031FF000855E8487
:011FF30022CB
:0A288E00EF1FAC0670011E4C70F63F
:01289800221D
:101BDF007F327E0012277FC2AC9000B07401F0A359
:101BEF007410F0A37451F0E4A3F0A3F0A3740AF0FF
:101BFF00A37414F0A37401F0E4A3F0A3F0A3F09086
:101C0F0000FFE09000BBF0900100E09000BCF0906E
:101C1F000101E09000BDF0900102E09000BEF09055
:101C2F0000ACE09000BFF09000ADE09000C0F090ED
:101C3F0000AEE09000C1F09000AFE09000C2F090D5
:101C4F000001E09000C3F0900002E09000C4F0901B
:101C5F000003E09000C5F0900004E09000C6F09003
:101C6F00002DE09000C7F090002EE09000C8F0909B
:101C7F00002FE09000C9F0900030E09000CAF07D96
:101C8F001B121F62D2ACE4900105F0A3F0C39001C8
:101C9F0006E0940A900105E0940040F1300402C27E
:021CAF0004220D
:0B24A600C20AE4900115F0A3F07F01D2
:1024B100EFFD7555008D56752301752410E4F52542
:1024C100F526F527752802752904F52AF52BF52C33
:1024D1008F2DFB7A0079237D0B121F68E490010593
:1024E100F0A3F0C3900106E0940A900105E0940086
:0724F10040F1300402C204B7
:0124F80022C1
:0E288000900026E0C394144004E4F0B2A622B7
:1019C5008584229000D3E0242A6052147003021A01
:1019D50057147003021AB124036003021AEC900134
:1019E50021E014601B04703375840F20D90512277C
:1019F500798002D2D9C2DBE4900027F0A3F08018E9
:101A050075840F20DB07D2DB12277B8002D2DBC275
:101A1500D9E4900027F0A3F08522848074900121F9
:101A2500E014600A04702875840FD2DB8005758484
:101A35000FD2D9852284900027E0FEA3E0FF7C0029
:101A45007D0A121B5790003AEEF0A3EFF0D2010287
:101A55001AE3900121E014601D04703575840F2090
:101A6500DD07D2DD12277B8002D2DDC2DFE49000E4
:101A750027F0A3F0801875840F20DF07D2DF122727
:101A85007B8002D2DFC2DDE4900027F0A3F085223F
:101A950084C205E4900115F0A3F0C201900040F066
:101AA5009000D3F0900027F0A3F0803B900121E057
:101AB50014600A04702875840FD2DF800575840FC1
:101AC500D2DD852284900027E0FEA3E0FF7C007D27
:101AD5000A121B5790003AEEF0A3EFF0D201E49002
:0A1AE5000040F09000D3F002000E64
:1016D300E4F522900121E0C454F0F522EF24EF60F9
:1016E30069243F6061146071147003021889240433
:1016F30060030218957F011224B1900005E0FCA35A
:10170300E0FDA3E0FEA3E0FF9000FF121B7C90002E
:10171300F2E0FCA3E0FDA3E0FEA3E0FF9000AC1227
:101723001B7C900001121B88000003E890002D121F
:101733001B88000003E8121BDF7F031224B17F0123
:101743001224B102188CE4FF80027F011224B1E459
:10175300900040F09000D3F022C20A74412522F594
:1017630082E43400F583E09000FFF074422522F513
:1017730082E43400F583E0900100F074432522F500
:1017830082E43400F583E0900101F074442522F5EE
:1017930082E43400F583E0900102F074452522F5DC
:1017A30082E43400F583E09000ACF074462522F522
:1017B30082E43400F583E09000ADF074472522F510
:1017C30082E43400F583E09000AEF074482522F5FE
:1017D30082E43400F583E09000AFF074492522F5EC
:1017E30082E43400F583E0900001F0744A2522F589
:1017F30082E43400F583E0900002F0744B2522F577
:1018030082E43400F583E0900003F0744C2522F564
:1018130082E43400F583E0900004F0744D2522F552
:1018230082E43400F583E090002DF0744E2522F518
:1018330082E43400F583E090002EF0744F2522F506
:1018430082E43400F583E090002FF074502522F5F4
:1018530082E43400F583E0900030F01224A8121BD8
:10186300DF7F031224B17F011224B1E4900027F03B
:10187300A3F09000D3F0900040F0C200900113E079
:101883004401F0D20A22122826E49000D3F09000FB
:0218930040F023
:011895002230
:101D7300EF240F605B24F77003021E2A240A60031A
:101D8300021E2F1224A6900005E0FCA3E0FDA3E0B1
:101D9300FEA3E0FF9000FF121B7C9000AC121B8897
:101DA30000030D40900001121B88000007D0900033
:101DB3002D121B88000007D0121BDF7F031224B1F2
:101DC3007F011224B1E4900027F0A3F0C200804DFC
:101DD3001224A6900005E0FCA3E0FDA3E0FEA3E02F
:101DE300FF9000FF121B7C9000AC121B8800030DB8
:101DF30040900001121B88000007D090002D121B99
:101E030088000007D0121BDF7F031224B17F011269
:101E130024B1E4900027F0A3F0C200D2099001138B
:0D1E2300E04401F0D20A22E4FF1224B122B3
:1014D300EF240EB40E0040030216CF9014EC75F007
:1014E30003A4C58325F0C5837302151602151B02D9
:1014F300154802156A02158C0215900215D80215BB
:10150300F902161E02162102162302163702167C52
:1015130002161EC20A021661C20A9000FF121B883D
:10152300000003E89000AC121B880000C350900039
:1015330001121B88000000C890002D121B880000B8
:1015430000C802166185842275840F20DB0BD2DB71
:101553007F647E0012277F8002D2DBC2D9E4900031
:1015630027F0A3F002161885842275840F20DF0B61
:10157300D2DF7F647E0012277F8002D2DFC2DDE4E8
:10158300900027F0A3F0021618C20A802AC20A901C
:1015930000FF121B88000007D09000AC121B8800CC
:1015A30000C350900001121B88000000C890002D5A
:1015B300121B88000000C81224A8121BDF7F03122D
:1015C30024B17F011224B1E4900027F0A3F0C200FC
:1015D300D2090216BF85842275840F20D90BD2D974
:1015E3007F647E0012277F8002D2D9C2DBE49000A1
:1015F30027F0A3F0801F85842275840F20DD0BD292
:10160300DD7F647E0012277F8002D2DDC2DFE4909B
:101613000027F0A3F08522840216CF0216CA8000A9
:1016230085842275840FD2DBD2D9D2DFD2DD8584C3
:10163300220216CFC20A9000FF121B88773594004E
:101643009000AC121B8800002710900001121B8829
:10165300000007D090002D121B88000007D0122431
:10166300A8121BDF7F031224B17F011224B1E4907F
:101673000027F0A3F0C2008043C20A9000FF121BB0
:101683008888CA6C009000AC121B88000027109059
:101693000001121B88000007D090002D121B880048
:1016A3000007D01224A8121BDF7F031224B17F018D
:1016B3001224B1E4900027F0A3F0C200900113E0DC
:0F16C3004401F0D20A8005E4FF1224B18522848D
:0116D20022F5
:10237700EF241F600F14604F2402705C12286EE474
:10238700FF0224B1900114E020E01975840F20D9D1
:10239700051227798002D2D9C2DBE4900027F0A387
:1023A700F0852284900114E020E22D75840F20DD52
:1023B70007D2DD12277B8002D2DDC2DFE49000273F
:1023C700F0A3F08522842285842275840FD2DBD284
:0823D700D9D2DFD2DD8584229A
:0123DF0022DB
:082447008B5F8A6089618D62E0
:10244F0074FFFFFEAD621562ED604BAB5F0561E59A
:10245F0061AA607002056014F9121AEF6207E4F5C1
:10246F0063F564C3E5649408E5636480948050D495
:10247F00EF30E011EEC313FEEF13FFEE64A0FEEF9B
:10248F006401FF8007EEC313FEEF13FF0564E564DD
:06249F0070D1056380CD41
:0124A5002214
:102826007F011224B17F051224B17F011224B1C2A7
:0928360000900113E04402F022BD
:10286E007F011224B17F091224B17F011224B1C25B
:02287E00002236
:022295008F2395
:102297002000707F327E0012277F9000B0E523F088
:1022A700A37403F0A37401F0E4A3F0A3F0A37402F2
:1022B700F07D06121F62D203E4900105F0A3F0C37C
:1022C700900106E0940A900105E0940040F1300483
:1022D70030C204900027E0FEA3E0FD900016E03036
:1022E700E011D200EE900115F0EDA3F0900113E09C
:1022F70054FEF0900016E030E107900113E054FD22
:03230700F0C2031E
:01230A0022B0
:10230B009000FDE014601F0470619000D3E0700832
:10231B00900040E09000D3F01219C5300A4D9000A8
:10232B00D3E0FF0216D39000D3E07008900040E09A
:10233B009000D3F0900040E0244E602414602124E0
:10234B00B8601224FE60191470211221129001043E
:10235B00EFF0021D73120026900104EFF0022377B9
:0C236B00121240900104EFF01214D32273
:10211200E4F5229000CEE024FE604614605A2402C8
:102122007074900114E030E017900121E0B40110C6
:102132007522F0900113E04401F09000CE7402F099
:10214200900114E030E24F900121E0640270477583
:1021520022F1900113E04401F09000CE7402F0806D
:10216200357F01122295900113E020E0297522FAB1
:102172009000CE7403F0801EE49000CEF09000D365
:10218200F0900040F090010374C2F090002C743380
:08219200F0E4900029F0AF22F7
:01219A002222
:10124000E4F5229000CEE0121BB9127E0112A40236
:1012500012BC0312DA0413230513490613BD071346
:10126000E808140F09143D0A14590B14640C148077
:101270000D148B0E14B31414C815000014D0900173
:1012800021E024FE600B0460030214D07522F2807A
:10129000037522F3900113E04401F09000CE740234
:1012A000F00214D07F01122295900113E030E00388
:1012B0000214D09000CE7403F00214D0900121E00B
:1012C00024FE600B0460030214D07522F4800375C1
:1012D00022F59000CE74040213DDC390002BE0943D
:1012E000C890002AE09400400C9000CF7401F09068
:1012F00000CE740BF0900121E0FFB4010D900114B9
:10130000E030E1069000CE7405F0EFB4020D9001DC
:1013100014E030E3069000CE7405F0E490000AF08B
:101320000214D0900121E024FE600B04600302143B
:10133000D07522F680037522F7900113E04401F086
:101340009000CE7406F00214D07F011223E07F01DA
:10135000122295900113E030E0030214D0D206C2AD
:1013600006900121E0FFB4012490010FE030E01469
:1013700090000AE0C39403500BE004F09000CE7498
:1013800005F080097522FA9000CE7407F0EF640230
:1013900060030214D090010FE030E11590000AE0E4
:1013A000C39403500CE004F09000CE7405F00214D6
:1013B000D07522FA9000CE7407F00214D09001216B
:1013C000E024FE60100460030214D07522F890003F
:1013D000CE740880087522F99000CE7409F0E4906C
:1013E000002AF0A3F00214D0C390002BE094C89020
:1013F000002AE09400400C9000CF7401F09000CEE1
:10140000740DF0900114E020E0030214D08025C395
:1014100090002BE094C890002AE09400400C9000CB
:10142000CF7401F09000CE740DF0900114E020E232
:10143000030214D09000CE740AF00214D09001215F
:10144000E090000BF0E49000CEF09000D3F090001C
:1014500040F090010374C3804C7522FB9000CE7461
:101460000CF0806C900121E090000BF0E49000CE35
:10147000F09000D3F0900040F090010374E08025DC
:101480007522FC9000CE740EF08045900121E09012
:10149000000BF0E49000CEF09000D3F0900040F00C
:1014A00090010374E1F090002C7433F0E490002973
:1014B000F0801D900121E024FE600804700D75226B
:1014C000FD80087522FE80037522FFE49000CEF0B7
:0214D000AF2249
:0114D20022F7
:10002600E4FF9000CEE024FE601B14603C146043A5
:100036002403705D7FE19000CE7402F0E490002A04
:10004600F0A3F0804CC390002BE094C890002AE007
:100056009400400C9000CF7401F09000CE7403F031
:10006600900114E030E22A80027FE29000CE740410
:10007600F0801EE49000CEF09000D3F0900040F0A7
:1000860090010374C4F090002C7433F0E4900029BE
:01009600F079
:010097002246
:101E30009000FAE0FF24047033900122E09000311A
:101E4000F0900121E0900033F0900032EFF090012B
:101E500013E0900034F0900114E0900035F0900011
:101E6000CEE0900036F09000CFE08034900122E088
:101E7000900031F0900121E0900033F09000D3E029
:101E8000900032F090011CE0900034F090011DE0D1
:101E9000900035F090011EE0900036F090011FE0B8
:101EA000900037F0E4FFFE74312EF582E43400F543
:101EB00083E02FFF0EEEC3940740EC900038EFF064
:0B1EC0007B017A0079317F0802219B32
:10221A009000D3E02440604E2420B40D0050539027
:10222A00223775F003A4C58325F0C58373022260A3
:10223A0002226002227C02227C02226002226002C6
:10224A0022600222600222600222600222600222CE
:10225A00600222608000121E30E49000D3F09000E9
:10226A0040F0C208800C12009EE49000D3F0900067
:10227A0040F09000FAE024047010900000E060033F
:0B228A00121E30E49000FAF0C208229F
:101ECB00900000E07003021F6190002CE0D394326D
:101EDB005003021F61E4F0900103E0FD6078900174
:101EEB0022E0900031F0EDB4C30590000B8003901D
:101EFB000121E0900033F0900103E0900032F0906C
:101F0B00010FE0900034F0900114E0900035F09058
:101F1B0000CEE0900036F09000CFE0900037F0E478
:101F2B00FEFF74312FF582E43400F583E02EFE0FB3
:101F3B00EFC3940740EC900038EEF07B017A007908
:101F4B00317F0812219B900029E004F0E4900103FB
:061F5B00F0900029F0F0F7
:011F6100225D
:10009E00900122E0900031F0E4900033F09000D314
:1000AE00E0900032F0900041E0900034F090004279
:1000BE00E0900035F0900043E0900036F090004460
:1000CE00E0900037F0E4FFFE74192EF582E434015F
:1000DE00F583E02FFF0EEEC3940740EC900038EF4F
:1000EE00F07B017A0079317F0812219B900122E08A
:1000FE00900031F09000337401F09000D3E0900046
:10010E0032F0900045E0900034F0900046E0900010
:10011E0035F0900047E0900036F0900048E09000F7
:10012E0037F0E4FFFE74192EF582E43401F583E016
:10013E002FFF0EEEC3940740EC900038EFF07B01DA
:10014E007A0079317F0812219B900122E0900031D4
:10015E00F09000337402F09000D3E0900032F090F3
:10016E000049E0900034F090004AE0900035F090A5
:10017E00004BE0900036F090004CE0900037F0E439
:10018E00FFFE74192EF582E43401F583E02FFF0E85
:10019E00EEC3940740EC900038EFF07B017A0079C3
:1001AE00317F0812219B900122E0900031F09000E7
:1001BE00337403F09000D3E0900032F090004DE0E5
:1001CE00900034F090004EE0900035F090004FE03B
:1001DE00900036F0900050E0900037F0E4FFFE748F
:1001EE00192EF582E43401F583E02FFF0EEEC39451
:1001FE000740EC900038EFF07B017A0079317F08F0
:10020E0012219B900122E0900031F0900033740493
:10021E00F09000D3E0900032F0900051E090003466
:10022E00F0900052E0900035F0900053E0900036D0
:10023E00F0900054E0900037F0E4FFFE74192EF5B4
:10024E0082E43401F583E02FFF0EEEC3940740ECF9
:10025E00900038EFF07B017A0079317F0812219BF4
:10026E00900122E0900031F09000337405F0900080
:10027E00D3E0900032F0900055E0900034F0900002
:10028E0056E0900035F0900057E0900036F0900068
:10029E0058E0900037F0E4FFFE74192EF582E43436
:1002AE0001F583E02FFF0EEEC3940740EC9000386B
:1002BE00EFF07B017A0079317F0812219B900122A9
:1002CE00E0900031F09000337406F09000D3E0908F
:1002DE000032F0900059E0900034F090005AE09017
:1002EE000035F090005BE0900036F090005CE090FE
:1002FE000037F0E4FFFE74192EF582E43401F58325
:10030E00E02FFF0EEEC3940740EC900038EFF07B29
:10031E00017A0079317F0812219B900122E0900032
:10032E0031F09000337407F09000D3E0900032F07B
:10033E0090005DE0900034F090005EE0900035F0AB
:10034E0090005FE0900036F0900060E0900037F093
:10035E00E4FFFE74192EF582E43401F583E02FFFDD
:10036E000EEEC3940740EC900038EFF07B017A005C
:10037E0079317F0812219B900122E0900031F0909C
:10038E0000337408F09000D3E0900032F0900061DA
:10039E00E0900034F0900062E0900035F090006341
:1003AE00E0900036F0900064E0900037F0E4FFFE3D
:1003BE0074192EF582E43401F583E02FFF0EEEC39F
:1003CE00940740EC900038EFF07B017A0079317F92
:1003DE000812219B900122E0900031F090003374BE
:1003EE0009F09000D3E0900032F0900065E09000AC
:1003FE0034F0900066E0900035F0900067E09000D9
:10040E0036F0900068E0900037F0E4FFFE74192E8D
:10041E00F582E43401F583E02FFF0EEEC39407401E
:10042E00EC900038EFF07B017A0079317F081221D1
:10043E009B900122E0900031F0900033740AF0900E
:10044E0000D3E0900032F0900069E0900034F0901C
:10045E00006AE0900035F090006BE0900036F0906E
:10046E00006CE0900037F0E4FFFE74192EF582E484
:10047E003401F583E02FFF0EEEC3940740EC90009D
:10048E0038EFF07B017A0079317F0812219B9001C1
:10049E0022E0900031F0900033740BF09000D3E026
:1004AE00900032F090006DE0900034F090006EE01D
:1004BE00900035F090006FE0900036F0900070E004
:1004CE00900037F0E4FFFE74192EF582E43401F546
:1004DE0083E02FFF0EEEC3940740EC900038EFF050
:1004EE007B017A0079317F0812219B900122E090E6
:1004FE000031F0900033740CF09000D3E090003295
:10050E00F0900071E0900034F0900072E0900035B1
:10051E00F0900073E0900036F0900074E090003799
:10052E00F0E4FFFE74192EF582E43401F583E02F1A
:10053E00FF0EEEC3940740EC900038EFF07B017A8B
:10054E000079317F0812219B900122E0900031F05A
:10055E00900033740DF09000D3E0900032F09000D4
:10056E0075E0900034F0900076E0900035F0900049
:10057E0077E0900036F0900078E0900037F0E4FFDE
:10058E00FE74192EF582E43401F583E02FFF0EEE92
:10059E00C3940740EC900038EFF07B017A0079317C
:1005AE007F0812219B900122E0900031F0900033E1
:1005BE00740EF09000D3E0900032F0900079E0904D
:1005CE000034F090007AE0900035F090007BE090DF
:1005DE000036F090007CE0900037F0E4FFFE7419D6
:1005EE002EF582E43401F583E02FFF0EEEC394075F
:1005FE0040EC900038EFF07B017A0079317F0812E1
:10060E00219B900122E0900031F0900033740FF0A6
:10061E009000D3E0900032F090007DE0900034F036
:10062E0090007EE0900035F090007FE0900036F074
:10063E00900080E0900037F0E4FFFE74192EF582F2
:10064E00E43401F583E02FFF0EEEC3940740EC90E7
:10065E000038EFF07B017A0079317F0812219B90F0
:10066E000122E0900031F09000337410F09000D32E
:10067E00E0900032F0900081E0900034F090008223
:10068E00E0900035F0900083E0900036F09000840A
:10069E00E0900037F0E4FFFE74192EF582E4340189
:1006AE00F583E02FFF0EEEC3940740EC900038EF79
:1006BE00F07B017A0079317F0812219B900122E0B4
:1006CE00900031F09000337411F09000D3E0900060
:1006DE0032F0900085E0900034F0900086E09000BB
:1006EE0035F0900087E0900036F0900088E09000A2
:1006FE0037F0E4FFFE74192EF582E43401F583E041
:10070E002FFF0EEEC3940740EC900038EFF07B0104
:10071E007A0079317F0812219B900122E0900031FE
:10072E00F09000337412F09000D3E0900032F0900D
:10073E000089E0900034F090008AE0900035F0904F
:10074E00008BE0900036F090008CE0900037F0E4E3
:10075E00FFFE74192EF582E43401F583E02FFF0EAF
:10076E00EEC3940740EC900038EFF07B017A0079ED
:10077E00317F0812219B900122E0900031F0900011
:10078E00337413F09000D3E0900032F090008DE0BF
:10079E00900034F090008EE0900035F090008FE0E5
:1007AE00900036F0900090E0900037F0E4FFFE7479
:1007BE00192EF582E43401F583E02FFF0EEEC3947B
:1007CE000740EC900038EFF07B017A0079317F081A
:1007DE0012219B900122E0900031F09000337414AE
:1007EE00F09000D3E0900032F0900091E090003451
:1007FE00F0900092E0900035F0900093E09000367B
:10080E00F0900094E0900037F0E4FFFE74192EF59E
:10081E0082E43401F583E02FFF0EEEC3940740EC23
:10082E00900038EFF07B017A0079317F0812219B1E
:10083E00900122E0900031F09000337415F090009A
:10084E00D3E0900032F0900095E0900034F09000EC
:10085E0096E0900035F0900097E0900036F0900012
:10086E0098E0900037F0E4FFFE74192EF582E43420
:10087E0001F583E02FFF0EEEC3940740EC90003895
:10088E00EFF07B017A0079317F0812219B900122D3
:10089E00E0900031F09000337416F09000D3E090A9
:1008AE000032F0900099E0900034F090009AE090C1
:1008BE000035F090009BE0900036F090009CE090A8
:1008CE000037F0E4FFFE74192EF582E43401F5834F
:1008DE00E02FFF0EEEC3940740EC900038EFF07B54
:1008EE00017A0079317F0812219B900122E090005D
:1008FE0031F09000337417F09000D3E0900032F096
:10090E0090009DE0900034F090009EE0900035F055
:10091E0090009FE0900036F09000A0E0900037F03D
:10092E00E4FFFE74192EF582E43401F583E02FFF07
:10093E000EEEC3940740EC900038EFF07B017A0086
:10094E0079317F0812219B900122E0900031F090C6
:10095E0000337418F09000D3E0900032F09000A1B4
:10096E00E0900034F09000A2E0900035F09000A3EB
:10097E00E0900036F09000A4E0900037F0E4FFFE27
:10098E0074192EF582E43401F583E02FFF0EEEC3C9
:10099E00940740EC900038EFF07B017A0079317FBC
:1009AE000812219B900122E0900031F090003374E8
:1009BE0019F09000D3E0900032F09000A5E0900086
:1009CE0034F09000A6E0900035F09000A7E0900083
:1009DE0036F09000A8E0900037F0E4FFFE74192E78
:1009EE00F582E43401F583E02FFF0EEEC394074049
:1009FE00EC900038EFF07B017A0079317F081221FC
:100A0E009B900122E0900031F0900033741AF09028
:100A1E0000D3E0900032F09000A9E0900034F09006
:100A2E0000AAE0900035F09000ABE0900036F0E4C4
:100A3E00A3F0FFFE74192EF582E43401F583E02F46
:100A4E00FF0EEEC3940740EC900038EFF07B017A76
:080A5E000079317F0802219BA1
:1025D700A984C2AFE4F58443B701438F07FFFEF533
:1025E70082F583F0538FFDFD74412DF582E43400AD
:1025F700F583E0FC0FEFAA0670010E14F5828A83BB
:10260700ECF00DEDC3946B40DF538FFA53B7FED256
:03261700AF898404
:01261A00229D
:10274200AF84C2AFE4F584438F04FDFCFE0DEDAA15
:102752000470010C14F5828A83E493FB74412EF514
:1027620082E43400F583EBF00EEEC3946B40DE534B
:062772008FFBD2AF8F8443
:01277800223E
:1027EA009001227401F090004074FBF0E490012102
:1027FA00F09000CE04F09000257433F09000FD7440
:03280A0001F022B8
:1023E0008F237F327E0012277F9000B074EFF0A31E
:1023F000F0A37404F0A3E523F0A37401F0E4A3F0C8
:10240000A374E4F07B017A0079B07D07121F68D2D3
:1024100003E4900105F0A3F0C3900106E0940A9054
:102420000105E0940040F130041AC204900015E068
:1024300090010FF0900016E0FF900108E04F90012E
:0724400010F0B290C203226C
:1028570075840F1226D11227EA12230B12221A129D
:072867001ECB12288080F255
:10200300022857E493A3F8E493A34003F68001F274
:1020130008DFF48029E493A3F85407240CC8C333DE
:10202300C4540F4420C8834004F456800146F6DFAD
:10203300E4800B0102040810204080901CB1E47E70
:10204300019360BCA3FF543F30E509541FFEE493A2
:10205300A360010ECF54C025E060A840B8E493A369
:10206300FAE493A3F8E493A3C8C582C8CAC583CA94
:10207300F0A3C8C582C8CAC583CADFE9DEE780BE4C
:011D72000070
:101AEF00BB010689828A83E0225002E722BBFE02F5
:091AFF00E32289828A83E4932228
:101B0800BB010CE58229F582E5833AF583E0225092
:101B180006E92582F8E622BBFE06E92582F8E222DC
:0D1B2800E58229F582E5833AF583E49322F6
:101B3500F8BB010DE58229F582E5833AF583E8F0E6
:101B4500225006E92582C8F622BBFE05E92582C892
:021B5500F2227A
:101B5700EF8DF0A4A8F0CF8CF0A428CE8DF0A42EA2
:021B6700FE225C
:101B6900E8600FEFC333FFEE33FEED33FDEC33FCDA
:031B7900D8F1227E
:0C1B7C00ECF0A3EDF0A3EEF0A3EFF022DC
:101B8800A8828583F0D083D082121B9F121B9F12DC
:101B98001B9F121B9FE473E493A3C583C5F0C58301
:101BA800C8C582C8F0A3C583C5F0C583C8C582C8A7
:011BB800220A
:101BB900D083D082F8E4937012740193700DA3A3BB
:101BC90093F8740193F5828883E4737402936860CF
:061BD900EFA3A3A380DFCF
:00000001FF
