:030000000202A950
:0F02A90053D9BF787FE4F6D8FD7581310202F397
:1005EC0041005E004100610142005C000041005F7F
:0705FC000041006000C10096
:040550008E178F185B
:10055400751903751AE8E5181518AE177002151702
:0B0564004E6008AF1AAE19111580EBB5
:01056F002269
:0706520053FF7F43FF072265
:10064200B12DD15291B191E2D10475FFA5D2AF2261
:1004E200AF84E4F584758921F587758DFD758BFDE3
:1004F200C28FD28E758CDCF58AC28DD28CD2A97550
:060502009850D2AC8F847A
:0105080022D0
:02000B0021C70B
:0D01C700C0E0C083C082C0D075D000C0056C
:1001D400AD84758400758CDC758A0075FFA58D84EB
:1001E400AD8490005DE004F0700690005CE004F0E3
:1001F40075840F90005FE020B0054401F080035443
:10020400FEF090005FE020B1054402F0800354FD4D
:10021400F090005FE020B2054404F0800354FBF04A
:1002240090005FE020B3054408F0800354F7F09099
:10023400005FE020B4054410F0800354EFF0900018
:100244005FE020B5054420F0800354DFF090005FA8
:10025400E020E8054480F08003547FF0900060E0E3
:1002640020E9054401F0800354FEF0900060E02092
:10027400EA054402F0800354FDF0900060E020EBB6
:10028400054404F0800354FBF0900060E020EC058A
:0A0294004408F0800354F7F08D8455
:0B029E00D005D0D0D082D083D0E03259
:1004B10075840F75E104E4F5E275E340F5E47584B4
:1004C1000F75A4FDF5A5F5A6F5A7F59CF59DF59E7F
:1004D100F59F75ADFF75AEFF75AFFFF58475A32769
:0104E10022F8
:10052D00AF8475840F758C67E4FDFC0DBD00010C67
:10053D00E4B505F7ECB401F3E58C30E7FB759701F5
:02054D008F8499
:01054F002289
:1006040075840FE490005FF0A3F0AF8475840FC28B
:0506140083C2848F8405
:0106190022BE
:020023000125B5
:10002500C0E0C083C082C0D075D000C000C001C090
:0B00350002C003C004C005C006C007E5
:10004000E4900099F0A3F0A3F0A984F5842098022D
:1000500021AEC29890009AE0FF2462F582E4340059
:10006000F583E599F074622FF582E43400F583E0BE
:10007000FF900097F090009BE02FF090009AE00432
:10008000F07C007D002098100DBD00010CD3ED9494
:1000900020EC944E40EF21A8C29890009AE0FF24F3
:1000A00062F582E43400F583E599F074622FF582FD
:1000B000E43400F583E0FF900098F0FB90009BE0B3
:1000C0002FF090009AE004F0900097E0FE7A00E4B0
:1000D0002BFFEA3EFEEF64EF7003EE64EF60022157
:1000E000A87C007D002098100DBD00010CD3ED947C
:1000F00020EC944E40EF21A8C29890009AE0FF2493
:1001000062F582E43400F583E599F074622FF5829C
:10011000E43400F583E0FF900099F0804D90009961
:10012000E02402FFE433FEA3E0C39FEE6480F87492
:10013000809850447C007D002098100DBD00010C7B
:10014000D3ED9420EC944E40EF805DC29890009ADD
:10015000E0FF2462F582E43400F583E599F07462EF
:100160002FF582E43400F583E0FF90009BE02FF050
:1001700090009AE004F080A57C007D002098100D8E
:10018000BD00010CD3ED9420EC944E40EF8019C2D9
:1001900098900097E599F0C2AC900066E090005E00
:0E01A000F0D200147002C295C298D2AC8984CD
:1001AE00D007D006D005D004D003D002D001D000A5
:0901BE00D0D0D082D083D0E03211
:1005BC00AF8475840F43E204E4F584C2AFD2A8D2B1
:0705CC00B8D288D2AF8F8482
:0105D3002205
:02000300A18AD0
:07058A00C0D075D000C007CE
:0D059100AF84758400C2A8C289D2A88F84EF
:05059E00D007D0D032AF
:1005D400AF8475840F43E210E4F584C2AFD2AAD28B
:0705E400BAD28AD2AF8F8466
:0105EB0022ED
:02001300A1A3A7
:0705A300C0D075D000C007B5
:0D05AA00AF84758400C2AAC28BD2AA8F84D0
:0505B700D007D0D03296
:080413008B0D8A0E890F8D107C
:10041B00E4F511F512F513F514F5158584167584AD
:10042B000FD283D2847F0AFEB150C2ACE4F584AB09
:10043B000DAA0EA90F8511827583009184F5993051
:10044B0099FDC2990511E511C3951040E2D2AC7527
:0F045B00840FC283C2847F0A7E00B1508516844D
:01046A00226F
:10033800E4F508F509F50AF50BFE85840C90000034
:1003480074ABF0A374CDF0900061E0900003F090DE
:10035800005EE0900004F01470169000027405F03E
:1003680090005FE0900005F0900060E0900006F0DB
:10037800E4FF900002E02402FDE433FCEFC39DECAF
:100388006480F8748098501074002FF582E434006B
:10039800F583E02EFE0F80DA900007EEF07B017AFD
:0C03A8000079007D089113C200850C84D0
:0103B4002226
:0A001500EF1FAC0670011E4C70F6E0
:01001F0022BE
:10061A00C390005DE0941490005CE094004006E40E
:06062A00F0A3F0B29622DD
:0803B5008B2C8A2D892E8D2F5F
:1003BD0074FFFFFEAD2F152FED604AAB2C052EE51A
:1003CD002EAA2D7002052D14F9916B6207E4F530FC
:1003DD00F531C3E5319408E5306480948050D5EF54
:1003ED0030E011EEC313FEEF13FFEE64A0FEEF64D9
:1003FD0001FF8007EEC313FEEF13FF0531E53170EA
:05040D00D1053080CD97
:0104120022C7
:0100050022D8
:10050900C2AFE4F58443B701438F07F582F583F061
:10051900538FFDFF0FEFC3946B40F9538FFA53B715
:03052900FED2AF50
:01052C0022AC
:10057000C2AFE4F584438F04F51BF51CFF0FEFC3F6
:09058000946B40F9538FFBD2AFDC
:01058900224F
:10063000D14275840F300006C2AC7138D2ACD11AE9
:0206400080F345
:1002B800020630E493A3F8E493A34003F68001F226
:1002C80008DFF48029E493A3F85407240CC8C33347
:1002D800C4540F4420C8834004F456800146F6DF16
:1002E800E4800B01020408102040809005ECE47EB5
:1002F800019360BCA3FF543F30E509541FFEE4930B
:10030800A360010ECF54C025E060A840B8E493A3D1
:10031800FAE493A3F8E493A3C8C582C8CAC583CAFC
:10032800F0A3C8C582C8CAC583CADFE9DEE780BEB4
:0106030000F6
:10046B00BB010689828A83E0225002E722BBFE028F
:09047B00E32289828A83E49322C2
:10048400BB010CE58229F582E5833AF583E022502D
:1004940006E92582F8E622BBFE06E92582F8E22277
:0D04A400E58229F582E5833AF583E4932291
:00000001FF
